:02000004080AE8
:1000000000000A0838200A08000005000600050163
:080010000402CF000000000013
:10001800BC1D0A0809480A4908B5884205D0094A9A
:10002800824202D0121A01F0A9FE0748074A0021AD
:10003800121A01F0AEFE064808BD00BF00030020FA
:10004800F41F0A081C03002020030020B408002025
:10005800B408002070B500F0C7FD074B074C1E46DA
:10006800E41AA4080025A54204D056F8253098477C
:100078000135F8E770BD00BFB81F0A08EC1F0A0871
:1000880000F012B808B500F039F8BDE8084000F0F3
:1000980069BD00F0CDBA0078B0FA80F04009704729
:1000A800012303707047000008B5092200230C499A
:1000B8000C4800F0ADFA002309220B490B4800F068
:1000C800A7FA002309220A490A4800F0A1FA0B20DE
:1000D800002100F0D1FDBDE80840074800F06BB8EA
:1000E80000030020D01D0A0808030020DC1D0A08B0
:1000F80010030020E51D0A08240300202DE9F04123
:100108001B4C204600F03EF90746322000F098FAD2
:10011800204600F00DF980460B2000F0EAFD01F0C2
:100128007BFC1449064601F07FFD01F055F900F00B
:100138009FFF044640460D4601F04EF90E4BC3E9B9
:100148000001384601F048F90C4BC3E9000130467C
:1001580001F042F90A4B0022C3E90001094B20468D
:10016800294601F08DF9084BC3E90001BDE8F0818B
:10017800240300200000A4420003002008030020FC
:10018800380300200000E03F1003002010B500F005
:100198001DF9BDE81040062316220121014800F090
:1001A80003B800BF2403002010B503720123817136
:1001B800C271037410BD10B504460021807900F0A7
:1001C8005BFD0121A07900F068FD0023E36010BD0C
:1001D8002DE9F843044600F0F1F8E368834284BF50
:1001E8000023E360237C3BB9E368C01AB0F5FA6FDB
:1001F80002D20120BDE8F8830025257400F0DEF85E
:100208000121E0602571A079E570A5706570257001
:1002180000F043FDFA2000F013FA0121A07900F064
:100228002BFD2946A07900F038FD142000F008FACB
:1002380000F054FA0121A07900F02FFD282000F0E9
:10024800B5F82946A07900F017FD2E4601274FF092
:100258000008A07900F03AFDB8425FFA88F908D1A1
:10026800012008F1010800F0A1F8B8F1FF0FF0D162
:10027800C146A07900F02AFDB9F1FF0FC7B214D02A
:10028800032D0ED9EB070CD4F208A35C01365B00F2
:10029800DBB2A354217AF6B249453CBF43F00103CF
:1002A800A3540135EDB2552DD1D100F019FA272EFE
:1002B8000AD92278637821791344A2781344E27822
:1002C8001344DBB2994294D00020BDE8F8830000C3
:1002D80070B50446FFF77CFF18B3E3790B2B04D005
:1002E8001FD3153B012B04D91BE0A07801F090FB2C
:1002F80070BDA57805F07F0001F08EFB4FF08741B7
:1003080001F0DEFB0646E07801F086FB314601F09D
:10031800CFFA054901F088FC2B0603D500F100400F
:1003280070BD024870BD00BF000020410000C07FC2
:10033800FFF7CEBF38B50446FFF74AFFE0B1E379CF
:100348000B2B15D018D3153B012B15D8207801F0AD
:100358005FFB4FF0874101F0B3FB0546607801F081
:100368005BFB294601F0A4FA044901F05DFC38BDA5
:10037800207801F04DFB38BD014838BD0000204110
:100388000000C07FFFF7D6BF00F020B808B5024BC9
:100398001B681B6B019308BDD001060808B5024B0A
:1003A8001B685B68019308BD9C01060808B5024BF1
:1003B8001B68DB68019308BD9C01060808B5024B61
:1003C8001B685B69019308BD9C01060808B5024BD0
:1003D8001B681B68019308BDB001060808B5024BED
:1003E8001B685B68019308BDB001060808B5024B9D
:1003F8001B689B68019308BDB001060808B5024B4D
:100408001B68DB68019308BDB001060808B5024BFC
:100418001B681B69019308BDB001060808B5024BAB
:100428001B685B69019308BDB001060808B5024B5B
:100438001B681B6A019308BDB001060808B5024B8A
:100448001B685B6A019308BDB001060808B5024B3A
:100458001B681B6B019308BDB001060808B5024B69
:100468001B681B6E019308BDAC01060808B5024B5A
:100478001B685B6E019308BDAC01060808B5024B0A
:100488001B689B6E019308BDAC01060808B5024BBA
:100498001B68DB6E019308BDAC01060808B5024B6A
:1004A8001B681B6F019308BDAC01060808B5024B19
:1004B8001B685B6F019308BDAC01060808B5034BC8
:1004C8001B68D3F88030019308BD0000AC01060812
:1004D80008B5024B1B68DB69019308BDB401060827
:1004E80008B5024B1B681B6A019308BDB4010608D6
:1004F80008B5024B1B689B69019308BDC401060837
:1005080008B5024B1B685B6A019308BDC401060865
:1005180008B5024B1B689B6A019308BDC401060815
:1005280008B5024B1B68DB6A019308BDC4010608C5
:1005380008B5024B1B681B6B019308BDC401060874
:1005480008B5024B1B685B6B019308BDC401060824
:1005580008B5024B1B689B6B019308BDC4010608D4
:1005680008B5024B1B681B6C019308BDC401060843
:1005780008B5024B1B681B68019308BDD801060823
:1005880008B5024B1B681B69019308BDD801060812
:1005980008B5024B1B685B69019308BDD8010608C2
:1005A80008B5024B1B689B69019308BDD801060872
:1005B80008B5024B1B68DB69019308BDD801060822
:1005C80008B5024B1B681B6A019308BDD8010608D1
:1005D80008B5024B1B685B68019308BDA4010608B7
:1005E80008B5024B1B685B69019308BDA4010608A6
:1005F80008B5024B1B685B6E019308BDA401060891
:1006080008B5024B1B689B6E019308BDA401060840
:1006180008B5024B1B681B68019308BDCC0106088E
:1006280008B5024B1B681B69019308BDC801060881
:1006380008B5024B1B685B68019308BDA00106085A
:100648000021FFF7CDBF10B58368044613B103221C
:1006580001469847204610BD7047F8B5064615462E
:100668000C468F18BC4206D0336814F8011B9B68EF
:1006780030469847F6E72846F8BD0022007CFFF789
:10068800EDBE0021007CFFF7F1BE0021007CFFF7E2
:10069800F5BE0021007CFFF7F9BE0021007CFFF7C2
:1006A800FDBE10B50446FFF7F4FC204610BD00005F
:1006B80010B5044608464FF47A73A360044B002132
:1006C800207461602360FFF7F9FE204610BD00BF6B
:1006D800F81D0A080021007CFFF7E8BEFFF7AEBE50
:1006E800FFF7A4BE704710B50446FFF7D2FC2046BA
:1006F80010BDF8B50F4600F10806051D002416F8D0
:10070800011D0A22384600F082F8AE42044407D0A0
:10071800002CF4D02E21384600F04CF80444EEE7C3
:100728002046F8BD10B59DF8084044EA032343EA83
:10073800024242EA016104234160037510BD0000D2
:1007480037B5044D05609DF818500095FFF7EAFF8E
:1007580003B030BD201E0A08014A024B1A607047D8
:10076800E71E0A0840030020F8B506460D468F1814
:100778000024BD420CD0336815F8011B9B68304635
:100788009847002801DB0444F3E7002C08BF04461F
:100798002046F8BD70B505460C46084649B101F03B
:1007A80000FB2B68024621462846BDE87040DB68FE
:1007B800184770BD03689B681847012A98BF0A222A
:1007C80030B50B468BB000218DF824100DF12304B1
:1007D800B3FBF2F505FB1233DBB2092B94BF3033C0
:1007E8003733DBB2214604F801392B46002DEFD10F
:1007F800FFF7D0FF0BB030BD10B422B90368C9B2FF
:100808009B6810BC1847D2B210BCFFF7D6BFFFF7E1
:10081800F3BF10B50446FFF716FF204610BD0000D1
:10082800034800238360034A034900F0D3BA00BF9A
:1008380044030020200300201B080A08704710B555
:100848000446FFF726FC204610BD000070B504469C
:100858000E46074B0025036040F80C5FFFF796FD36
:1008680030462671FFF734FEA560204670BD00BFF4
:10087800181F0A080079FFF733BE0020FFF7A8BE4B
:10088800024B1A68024B1A60704700BF1803002019
:1008980054030020704741747047007CFFF760BE26
:1008A800007CFFF735BE007CFFF742BE007CFFF7F7
:1008B80037BE007CFFF744BE10B50446FFF7E9FBDE
:1008C800204610BD70B5457C04460E4625B9007C0F
:1008D800FFF746FE002805DD3146207CBDE8704064
:1008E800FFF70EBE284670BD10B5044608461146EF
:1008F800002262604FF47A72A260054A2074226076
:10090800012262741A46FFF7F3FD204610BD00BFAE
:10091800541F0A08007CFFF71BBE000038B50C4DB9
:10092800296811F0010411D12846FFF7B4FB68B11A
:10093800084A2146084B0948FFF7D6FF2846FFF723
:10094800AFFB074A0749054800F044FA034838BD99
:10095800F0030020F40300206C030020580300205B
:10096800200300209D080A08417470477047002141
:10097800007CFFF715BE0121007CFFF711BE007C4B
:10098800FFF706BE007CFFF7FBBD38B50446007CC8
:100998000D46FFF7FDFD002801DC607C20B12946EB
:1009A800207CFFF705FE012038BD007CFFF708BE5C
:1009B80010B50446FFF76DFB204610BD10B5044680
:1009C800002363604FF47A73A360054B08462360E5
:1009D8000123217463741146FFF7CAFD204610BD38
:1009E800841F0A0810B504461422002101F0D1F929
:1009F800054B20466360054BE36040F201132381F9
:100A08008123238210BD00BFFD0400207C04002048
:100A180030B50E4D87B001A8FFF7E4FF296811F043
:100A2800010410D12846FFF736FB60B101AA214620
:100A38000748FFF7C3FF2846FFF732FB054A064978
:100A4800034800F0C7F9024807B030BD7804002019
:100A5800000600202003002075090A0810B5044686
:100A68001422002101F095F9054B20466360054BDF
:100A7800E36040F2011323818123238210BD00BF6C
:100A8800B00600201806002010B50E4C86B001A84C
:100A9800FFF7E4FF2368DB0710D42046FFF7FBFAD3
:100AA80060B101AA01210848FFF788FF2046FFF737
:100AB800F7FA064A0649044800F08CF9024806B0DD
:100AC80010BD00BF140600209C0600202003002053
:100AD80075090A087047002211461046FFF7A0BDA5
:100AE8000348044B044A0549036000F073B900BF8A
:100AF800B4070020B41F0A0820030020DD0A0A08F2
:100B080008B5144B33B1FFF783FF03681B69984797
:100B1800002816DC104B33B1FFF700FF03681B6990
:100B28009847002810DC0D4B0BB1AFF300800C4B3D
:100B38007BB1FFF7A9FF03681B699847002806DC0B
:100B480008BDAFF30080E5E7AFF30080EBE7AFF354
:100B5800008008BD00000000000000000000000048
:100B68000000000008B5FFF7CBFFFFF727FC014B9B
:100B7800186008BDC00700200248034A0349121A3A
:100B880001F0FCB80040024004400240F01F0A088F
:100B98000020704737B5436804460A2B0ED0502B07
:100BA8001CD1104B1D68CDB1037D4FF4007100932B
:100BB800C26800F110038068A84707E000F110033D
:100BC800C2684FF400718068FFF7E2FF30B100227D
:100BD80020461146FFF714FD012000E0002003B075
:100BE80030BD00BFB807002038B50C4C0C4D236849
:100BF800AB420C4B0CBF012200221A7002D0FFF747
:100C0800BBFF2560084B1BB1FFF7C8FBAFF30080A3
:100C1800BDE8384000210548FFF7EABC0040024023
:100C28001E1C279ABC070020000000009D0B0A0824
:100C380010B504460F48FFF71DFE28B1A4F10D03B7
:100C4800022B01D8002010BD00F06AF8FFF742FD22
:100C580008B1012CF6D9FFF761FEFFF75BFE18B16A
:100C6800A4F11203012BEDD9172C8CBF0020012011
:100C780010BD00BFF4070020172838B504460D46FC
:100C88000AD8FF2908D0FFF7D3FF28B12946204604
:100C9800BDE83840FFF7AABB38BD38B504460D4655
:100CA800FFF7ACFBFF2810D0062804D84D2323FA01
:100CB80000F0C30709D42046FFF7BAFF28B1294638
:100CC8002046BDE83840FFF7A1BB38BD10B5044643
:100CD800FFF794FB0438C0B2012808D92046FFF773
:100CE800A7FF20B12046BDE81040FFF797BB0020C2
:100CF80010BD10B5044609289CBF0A34A4B220468A
:100D0800FFF796FF50B103212046FFF767FB032842
:100D180004D12046BDE81040FFF798BB002010BD65
:100D280038B50B4D296811F001040FD12846FFF79B
:100D3800B2F958B121460748FFF7BAFC2846FFF731
:100D4800AFF9054A0549034800F044F8014838BDA1
:100D5800C4070020C80700202003002061060A08F5
:100D680013B5084C00231A46194600932046FFF78E
:100D7800E7FC2046044A054902B0BDE8104000F0EF
:100D880029B800BFDC07002020030020ED060A0870
:100D980070B50C4C0C4E0D4D00212046FFF756FD4A
:100DA80020460B4C3246294600F014F80121204613
:100DB800FFF74CFD324629462046BDE8704000F05A
:100DC80009B800BFF40700202003002045080A08DE
:100DD800040800200B460146184600F0C1BF000079
:100DE800244B1A68D0075CBF01221A60224B1A688C
:100DF800D1075CBF01221A60204B1A68D2075CBF7A
:100E080001221A601E4B1A68D0075CBF01221A60C3
:100E18001C4B1A68D1075CBF01221A601A4B1A686A
:100E2800D2075CBF01221A60184B1A68D0075CBF52
:100E380001221A60164B1A68D1075CBF01221A609A
:100E4800144B1A68D2075CBF01221A60124B1A6849
:100E5800D0075CBF01221A60104B1A68D1075CBF2B
:100E680001221A600E4B1A68D2075CBF01221A6071
:100E7800704700BF400800203C08002038080020C8
:100E880034080020300800202C0800202808002002
:100E980024080020200800201C0800201808002032
:100EA80014080020184B1A68D1075CBF01221A6089
:100EB800164B1A68D2075CBF01221A60144B1A68D5
:100EC800D0075CBF01221A60124B1A68D1075CBFB9
:100ED80001221A60104B1A68D2075CBF01221A60FF
:100EE8000E4B1A68D0075CBF01221A600C4B1A68B7
:100EF800D1075CBF01221A600A4B1A68D2075CBF8F
:100F080001221A60704700BF600800205C080020BA
:100F18005808002054080020500800204C080020E1
:100F28004808002044080020184B1A68D1075CBF05
:100F380001221A60164B1A68D2075CBF01221A6098
:100F4800144B1A68D0075CBF01221A60124B1A684A
:100F5800D1075CBF01221A60104B1A68D2075CBF28
:100F680001221A600E4B1A68D0075CBF01221A6072
:100F78000C4B1A68D1075CBF01221A600A4B1A6829
:100F8800D2075CBF01221A60704700BF80080020AA
:100F98007C080020780800207408002070080020D1
:100FA8006C0800206808002064080020244B1A6898
:100FB800D0075CBF01221A60224B1A68D1075CBFB8
:100FC80001221A60204B1A68D2075CBF01221A60FE
:100FD8001E4B1A68D0075CBF01221A601C4B1A68A6
:100FE800D1075CBF01221A601A4B1A68D2075CBF8E
:100FF80001221A60184B1A68D0075CBF01221A60D8
:10100800164B1A68D1075CBF01221A60144B1A6884
:10101800D2075CBF01221A60124B1A68D0075CBF66
:1010280001221A60104B1A68D1075CBF01221A60AE
:101038000E4B1A68D2075CBF01221A60704700BFC6
:10104800B0080020AC080020A8080020A408002050
:10105800A00800209C080020980800209408002080
:10106800900800208C0800208808002084080020B0
:10107800F8B5C1F30A56A6F2FF35132D0A460B46FA
:101088000446864611DC002D2EDB0F461F492941F8
:101098000A4225D04FF400232B413B4423EA0103A5
:1010A8000026194634462046F8BD332D05DDB5F532
:1010B800806F1FD011462046F8BDA6F213464FF0A8
:1010C800FF3121FA06F63042F4D00122C5F133058A
:1010D80002FA05F52D1828BF9B1825EA0606E0E751
:1010E8000028D7D11146E6E7013501F0004307D0C3
:1010F8000026D6E702460B4600F010F80446D2E771
:1011080043F07F5343F440130026CAE7FFFF0F0064
:1011180081F0004102E000BF83F0004330B54FEAA0
:1011280041044FEA430594EA050F08BF90EA020F0D
:101138001FBF54EA000C55EA020C7FEA645C7FEAA0
:10114800655C00F0E2804FEA5454D4EB5555B8BFC3
:101158006D420CDD2C4480EA020281EA030382EA34
:10116800000083EA010180EA020281EA0303362DC6
:1011780088BF30BD11F0004F4FEA01314FF4801C99
:101188004CEA113102D0404261EB410113F0004FAB
:101198004FEA03334CEA133302D0524263EB430362
:1011A80094EA050F00F0A780A4F10104D5F1200E00
:1011B8000DDB02FA0EFC22FA05F2801841F100015B
:1011C80003FA0EF2801843FA05F359410EE0A5F12F
:1011D80020050EF1200E012A03FA0EFC28BF4CF060
:1011E800020C43FA05F3C01851EBE37101F0004516
:1011F80007D54FF0000EDCF1000C7EEB00006EEB23
:101208000101B1F5801F1BD3B1F5001F0CD34908AC
:101218005FEA30004FEA3C0C04F101044FEA445203
:1012280012F5800F80F09A80BCF1004F08BF5FEA8A
:10123800500C50F1000041EB045141EA050130BD6A
:101248005FEA4C0C404141EB010111F4801FA4F10D
:101258000104E9D191F0000F04BF01460020B1FA62
:1012680081F308BF2033A3F10B03B3F120020CDA9A
:101278000C3208DD02F1140CC2F10C0201FA0CF078
:1012880021FA02F10CE002F11402D8BFC2F1200CDD
:1012980001FA02F120FA0CFCDCBF41EA0C01904093
:1012A800E41AA2BF01EB0451294330BD6FEA0404DC
:1012B8001F3C1CDA0C340EDC04F11404C4F12002C7
:1012C80020FA04F001FA02F340EA030021FA04F3D9
:1012D80045EA030130BDC4F10C04C4F1200220FA30
:1012E80002F001FA04F340EA0300294630BD21FA6E
:1012F80004F0294630BD94F0000F83F4801306BF34
:1013080081F480110134013D4EE77FEA645C18BF27
:101318007FEA655C29D094EA050F08BF90EA020FBE
:1013280005D054EA000C04BF1946104630BD91EAB6
:10133800030F1EBF0021002030BD5FEA545C05D1B9
:101348004000494128BF41F0004130BD14F58004F8
:101358003CBF01F5801130BD01F0004545F0FE416C
:1013680041F470014FF0000030BD7FEA645C1ABFA1
:10137800194610467FEA655C1CBF0B46024650EAD8
:10138800013406BF52EA033591EA030F41F4002104
:1013980030BD00BF90F0000F04BF0021704730B58A
:1013A8004FF4806404F132044FF000054FF000015F
:1013B80050E700BF90F0000F04BF0021704730B520
:1013C8004FF4806404F1320410F0004548BF4042F5
:1013D8004FF000013EE700BF42004FEAE2014FEA4A
:1013E80031014FEA02701FBF12F07F4393F07F4F25
:1013F80081F06051704792F0000F14BF93F07F4F57
:10140800704730B54FF4607401F0004521F0004199
:1014180020E700BF50EA010208BF704730B54FF01F
:1014280000050AE050EA010208BF704730B511F024
:10143800004502D5404261EB41014FF4806404F15C
:1014480032045FEA915C3FF4DCAE4FF003025FEADE
:10145800DC0C18BF03325FEADC0C18BF033202EB66
:10146800DC02C2F1200300FA03FC20FA02F001FAC0
:1014780003FE40EA0E0021FA02F11444C1E600BF5F
:1014880070B54FF0FF0C4CF4E06C1CEA11541DBF12
:101498001CEA135594EA0C0F95EA0C0F00F0DEF8DD
:1014A8002C4481EA030621EA4C5123EA4C5350EAC2
:1014B800013518BF52EA033541F4801143F4801313
:1014C80038D0A0FB02CE4FF00005E1FB02E506F0A4
:1014D8000042E0FB03E54FF00006E1FB03569CF0F9
:1014E800000F18BF4EF0010EA4F1FF04B6F5007FFF
:1014F80064F5407404D25FEA4E0E6D4146EB060671
:1015080042EAC62141EA55514FEAC52040EA5E50F9
:101518004FEACE2EB4F1FD0C88BFBCF5E06F1ED8A3
:10152800BEF1004F08BF5FEA500E50F1000041EBDA
:10153800045170BD06F0004646EA010140EA020087
:1015480081EA0301B4EB5C04C2BFD4EB0C0541EAA9
:10155800045170BD41F480114FF0000E013C00F3BE
:10156800AB8014F1360FDEBF002001F0004170BDE2
:10157800C4F10004203C35DA0C341BDC04F11404FB
:10158800C4F1200500FA05F320FA04F001FA05F287
:1015980040EA020001F0004221F0004110EBD37054
:1015A80021FA04F642EB06015EEA430E08BF20EA80
:1015B800D37070BDC4F10C04C4F1200500FA04F323
:1015C80020FA05F001FA04F240EA020001F00041B5
:1015D80010EBD37041F100015EEA430E08BF20EA28
:1015E800D37070BDC4F1200500FA05F24EEA020E70
:1015F80020FA04F301FA05F243EA020321FA04F09F
:1016080001F0004121FA04F220EA020000EBD37055
:101618005EEA430E08BF20EAD37070BD94F0000F55
:101628000FD101F00046400041EB010111F4801F89
:1016380008BF013CF7D041EA060195F0000F18BF3A
:10164800704703F00046520043EB030313F4801F76
:1016580008BF013DF7D043EA0603704794EA0C0F30
:101668000CEA135518BF95EA0C0F0CD050EA410646
:1016780018BF52EA4306D1D181EA030101F00041C3
:101688004FF0000070BD50EA410606BF10461946EB
:1016980052EA430619D094EA0C0F02D150EA0136F7
:1016A80013D195EA0C0F05D152EA03361CBF104638
:1016B80019460AD181EA030101F0004141F0FE41D7
:1016C80041F470014FF0000070BD41F0FE4141F45B
:1016D800780170BD70B54FF0FF0C4CF4E06C1CEA5B
:1016E80011541DBF1CEA135594EA0C0F95EA0C0F10
:1016F80000F0A7F8A4EB050481EA030E52EA0335CB
:101708004FEA013100F088804FEA03334FF08055EB
:1017180045EA131343EA12634FEA022245EA111518
:1017280045EA10654FEA00260EF000419D4208BFC9
:10173800964244F1FD0404F5407402D25B084FEA76
:101748003202B61A65EB03055B084FEA32024FF422
:1017580080104FF4002CB6EB020E75EB030E22BF7F
:10176800B61A754640EA0C005B084FEA3202B6EB3F
:10177800020E75EB030E22BFB61A754640EA5C00EE
:101788005B084FEA3202B6EB020E75EB030E22BF7E
:10179800B61A754640EA9C005B084FEA3202B6EB7F
:1017A800020E75EB030E22BFB61A754640EADC003E
:1017B80055EA060E18D04FEA051545EA16754FEAA0
:1017C80006164FEAC30343EA52734FEAC2025FEABE
:1017D8001C1CC0D111F4801F0BD141EA00014FF04D
:1017E80000004FF0004CB6E711F4801F04BF01431E
:1017F8000020B4F1FD0C88BFBCF5E06F3FF6AFAE3A
:10180800B5EB030C04BFB6EB020C5FEA500C50F1C9
:10181800000041EB045170BD0EF0004E4EEA11314C
:1018280014EB5C04C2BFD4EB0C0541EA045170BD53
:1018380041F480114FF0000E013C90E645EA060E97
:101848008DE60CEA135594EA0C0F08BF95EA0C0FC5
:101858003FF43BAF94EA0C0F0AD150EA01347FF40D
:1018680034AF95EA0C0F7FF425AF104619462CE7E4
:1018780095EA0C0F06D152EA03353FF4FDAE104647
:10188800194622E750EA410618BF52EA43067FF498
:10189800C5AE50EA41047FF40DAF52EA43057FF428
:1018A800EBAE12E780F0004002E000BF81F000419B
:1018B80042001FBF5FEA410392EA030F7FEA226CEE
:1018C8007FEA236C6AD04FEA1262D2EB1363C1BF7E
:1018D800D218414048404140B8BF5B42192B88BFED
:1018E800704710F0004F40F4000020F07F4018BF10
:1018F800404211F0004F41F4000121F07F4118BF30
:10190800494292EA030F3FD0A2F1010241FA03FCD7
:1019180010EB0C00C3F1200301FA03F100F00043BF
:1019280002D5494260EB4000B0F5000F13D3B0F187
:10193800807F06D340084FEA310102F10102FE2AF6
:1019480051D2B1F1004F40EBC25008BF20F0010066
:1019580040EA03007047490040EB000010F4000F14
:10196800A2F10102EDD1B0FA80FCACF1080CB2EBA7
:101978000C0200FA0CF0AABF00EBC2505242184306
:10198800BCBFD0401843704792F0000F81F40001AB
:1019980006BF80F400000132013BB5E74FEA41037E
:1019A8007FEA226C18BF7FEA236C21D092EA030FEA
:1019B80004D092F0000F08BF0846704790EA010F64
:1019C8001CBF0020704712F07F4F04D1400028BF91
:1019D80040F00040704712F100723CBF00F5000073
:1019E800704700F0004343F0FE4040F400007047A9
:1019F8007FEA226216BF08467FEA23630146420255
:101A080006BF5FEA412390EA010F40F48000704767
:101A18004FF0000304E000BF10F0004348BF40420D
:101A28005FEA000C08BF704743F0964301464FF049
:101A380000001CE050EA010208BF70474FF00003A5
:101A48000AE000BF50EA010208BF704711F00043E6
:101A580002D5404261EB41015FEA010C02BF8446B6
:101A68000146002043F0B64308BFA3F18053A3F515
:101A78000003BCFA8CF2083AA3EBC25310DB01FA5C
:101A880002FC634400FA02FCC2F12002BCF1004FE0
:101A980020FA02F243EB020008BF20F00100704771
:101AA80002F1200201FA02FCC2F1200250EA4C00C5
:101AB80021FA02F243EB020008BF20EADC7070470B
:101AC8004FF0FF0C1CEAD0521EBF1CEAD15392EA19
:101AD8000C0F93EA0C0F6FD01A4480EA010C4002F5
:101AE80018BF5FEA41211ED04FF0006343EA50104F
:101AF80043EA5111A0FB01310CF00040B1F5000F91
:101B08003EBF490041EAD3715B0040EA010062F13F
:101B18007F02FD2A1DD8B3F1004F40EBC25008BF29
:101B280020F00100704790F0000F0CF0004C08BF47
:101B380049024CEA502040EA51207F3AC2BFD2F114
:101B4800FF0340EAC250704740F400004FF0000322
:101B5800013A5DDC12F1190FDCBF00F0004070475C
:101B6800C2F10002410021FA02F1C2F1200200FA9A
:101B780002FC5FEA310040F1000053EA4C0308BF61
:101B880020EADC70704792F0000F00F0004C02BFB2
:101B9800400010F4000F013AF9D040EA0C0093F02D
:101BA800000F01F0004C02BF490011F4000F013B87
:101BB800F9D041EA0C018FE70CEAD15392EA0C0FF5
:101BC80018BF93EA0C0F0AD030F0004C18BF31F060
:101BD800004CD8D180EA010000F00040704790F036
:101BE800000F17BF90F0004F084691F0000F91F0DA
:101BF800004F14D092EA0C0F01D142020FD193EAA0
:101C08000C0F03D14B0218BF084608D180EA010027
:101C180000F0004040F0FE4040F40000704740F003
:101C2800FE4040F4400070474FF0FF0C1CEAD052D1
:101C38001EBF1CEAD15392EA0C0F93EA0C0F69D02D
:101C4800A2EB030280EA010C49024FEA402037D098
:101C58004FF0805343EA111143EA10130CF000408F
:101C68008B4238BF5B0042F17D024FF4000C8B427F
:101C780024BF5B1A40EA0C00B3EB510F24BFA3EB5F
:101C8800510340EA5C00B3EB910F24BFA3EB91032F
:101C980040EA9C00B3EBD10F24BFA3EBD10340EA89
:101CA800DC001B0118BF5FEA1C1CE0D1FD2A3FF6CF
:101CB80050AF8B4240EBC25008BF20F00100704784
:101CC8000CF0004C4CEA50207F32C2BFD2F1FF0327
:101CD80040EAC250704740F400004FF00003013A58
:101CE80037E792F0000F00F0004C02BF400010F4FC
:101CF800000F013AF9D040EA0C0093F0000F01F010
:101D0800004C02BF490011F4000F013BF9D041EA31
:101D18000C0195E70CEAD15392EA0C0F08D1420264
:101D28007FF47DAF93EA0C0F7FF470AF084676E737
:101D380093EA0C0F04D14B023FF44CAF08466EE710
:101D480030F0004C18BF31F0004CCAD130F00042DE
:101D58007FF45CAF31F000437FF43CAF5FE700BF36
:101D680010B5054C13462CB10A4601460220AFF3C4
:101D7800008010BD204610BD0000000010B5431EB5
:101D88000A44914204D011F8014B03F8014FF8E7D7
:101D980010BD03460244934202D003F8011BFAE740
:101DA8007047034613F8012B002AFBD1181A013893
:101DB800704700001D000A085D000A0889000A082B
:101DC8008D000A080000000074656D70657261740A
:101DD8007572650068756D69646974790064696114
:101DE8006C54656D700000000000000000000000E9
:101DF80061060A08AB060A0883060A0863060A0889
:101E08008B060A0893060A089B060A08A3060A080E
:101E18000000000000000000FB060A08ED060A08A2
:101E2800EF060A0866006C6E00666E00636F6465F4
:101E38000064657461696C000D0A002530313075E5
:101E480020005D20002564002C200028293A20006D
:101E5800205B00636F6465203D2000256900646590
:101E68007461696C73203D2000626175640053657C
:101E78007269616C0055534253657269616C310037
:101E88007479706500706172616D00636D640069DA
:101E98006400686E64007374726D0066696C740027
:101EA8006C766C0061646448616E646C6572007283
:101EB800656D6F766548616E646C657200656E75F8
:101EC8006D48616E646C657273004A534F4E53746B
:101ED8007265616D4C6F6748616E646C6572006114
:101EE8007070006E6F6E6500747261636500696E74
:101EF800666F007761726E006572726F7200706152
:101F08006E696300616C6C00000000000000000056
:101F180045080A0847080A085A00252B3033643A4E
:101F2800253032750025592D256D2D2564542548F9
:101F38003A254D3A2553257A0061736374696D65B6
:101F48000000000000000000000000009D080A08D2
:101F5800C1080A08CD080A0871070A08A9080A086A
:101F6800B5080A08AF080A08BB080A089F080A0843
:101F7800A3080A08000000000000000075090A080C
:101F8800B9090A0893090A0871070A088D090A0895
:101F980077090A087F090A08B3090A0887090A089D
:101FA80071090A080000000000000000DF0A0A08A2
:101FB80095010A0891030A0861070A0829080A080E
:101FC80083080A0889080A08E90A0A08690D0A083C
:101FD800990D0A08E90D0A08AD0E0A08310F0A081A
:081FE800B50F0A08000000001B
:041FF00000000000ED
:101FF400000000000000F87F000000000000F87FEF
:0C200400000000000000F87F411F0A08E7
:10201000FFFFFFFF00000102030405060708090A8D
:102020000B0C0D0E0F101112131415161718191A88
:082030001B1C1D1E1F202800CF
:042038007856341290
:04000005080A0018CD
:00000001FF
