:02000002D0002C
:1040000000400D0048AC0D00000006000C0005014A
:084010000401BA0400000000E5
:10401800B47B0D0009480A49884208B505D0094A09
:10402800824202D0121A03F07DFD0748074A002198
:10403800121A03F082FD014808BD00BF00E2032008
:1040480090AB0D0090E2032090E20320F0E70320FC
:1040580070B502F0CFFE074C074BE41AA408002500
:104068001E46A54204D056F8253098470135F8E792
:1040780070BD00BF84AB0D0038AB0D0000F030B947
:1040880008B500F0C1FABDE8084002F081BE02F0B0
:1040980003B902F001B902F007B902F005B900004E
:1040A80008B5034A00210C2002F06AF8FEE700BFB9
:1040B800B95E0D000078B0FA80F04009704701231E
:1040C8000370704703685A6898681B6812F0010FFC
:1040D8004FEA620218BF8158104418BFCB581847DE
:1040E8002F2810B5044605D9094A00210A2002F0F4
:1040F80047F801E01F2803D904F01F04054B01E02D
:104108004FF0A043D3F81005E04000F0010010BDC7
:10411800B95E0D0000030050F8B5254E03893268DA
:104128001B01D118D55C4B7803F01F0343EA4515F2
:1041380004462846FFF7D4FF2846FFF7D1FFA38996
:1041480032681B01D118D55C4B7803F01F0343EA92
:10415800451507462846FFF7C3FF2846FFF7C0FF67
:10416800237C17F0FF0F03F00303C0B218BF43F01E
:10417800040308B143F008039A10013B22740D2B85
:1041880014D8DFE803F0070A0D0A13100707101305
:104198000A0D0A076369013307E06369013B04E01C
:1041A8006369023301E06369023B6361F8BD00BFE4
:1041B8001CE30320022A38B5044605D0032A0FD091
:1041C800012A11D10B6809E00C200D68FFF75FFF89
:1041D800034618B195E8070083E80700236003E069
:1041E8000C21006802F0C9FE002038BD2DE9F0431B
:1041F800284C294D2368294EADF20C4D73B1D6E9F0
:1042080000232749CDE9002302A8D5E9002302F0BD
:1042180053F802F03BFD02A902F06BFBD6E90089D6
:10422800D5E9006700221F4B4046494602F0F8FFD7
:1042380032463B4603F022FC40B1206828B302F026
:1042480025FD194902F055FB00201EE00022154B00
:104258004046494602F0E2FF0B46024639463046E0
:1042680003F00CFC236830B173B102F00FFD0F4965
:1042780002F03FFB08E023B102F008FD0C4902F010
:1042880038FB0C4B586800E001200DF20C4DBDE8DE
:10429800F08300BF38E3032010E2032008E2032084
:1042A8008C930D000000E03FB8930D00DF930D00E4
:1042B80005940D0098E2032010B5002814BF0724C8
:1042C80006240121204602F0E4FD4FF4FA7002F0C2
:1042D80003F820460021BDE8104002F0DABD0000D6
:1042E80070B52C4B1B6853B102F0D0FC4FF416513B
:1042F80002F0C0FC02F0CAFC274902F0FAFA0024D6
:10430800264E27492748746001252346092235701F
:1043180001F062FF234609222349244801F05CFF8B
:10432800234800F0BAFA23460222311D214801F041
:1043380053FF2946072002F09BFD2946062002F07C
:1043480097FD2146072002F0A4FD2146062002F031
:10435800A0FD20467460FFF7AFFF174801F038FD55
:10436800154801F0C3FA2946134800F003FF29460F
:10437800114800F004FF18220F210F4800F0F7FE43
:104388000E490D4802F0B5FA0B48BDE8704001F03F
:1043980021BC00BF38E3032036940D0098E20320C7
:1043A80010E2032040940D0000E203204C940D001D
:1043B80024E3032055940D00CCE2032062940D0001
:1043C80038B503F079F800220E4B03F0DBF80E4BFA
:1043D800D3E9002302F024FF00220C4B04460D46CB
:1043E80003F042FB48B10022094B2046294603F05E
:1043F80059FB20B90024064D01E0044D002445EC8A
:10440800104B38BD0000E03F08E2032000003E40AA
:10441800000014402DE9D043174C184B2068D3E90D
:10442800006703F049F802460B463046394602F069
:10443800F5FE0022124B03F0A5F803F03DFBFFF751
:10444800BFFF59EC108B00220E4B10EE100A4946A4
:1044580003F000FB30B900220B4B4046494603F0FD
:10446800F9FA20B13046394603F026FB206049ECC2
:10447800108BBDE8D08300BFC8E20320A8E2032068
:104488000000D03F00003E4000001440F0B5514805
:10449800514C8DB001F02AFA01214E4800F06FFE10
:1044A8006378012B05D0022B09D14C4BD3E9006767
:1044B8000EE0FFF7AFFF4A4D57EC106B77E0494B22
:1044C800D3E900672378002B70D06378032B68D07A
:1044D8003B463246444904A801F0EEFE6378012BBE
:1044E80017D83946304603F0E7FA02F0E5FF0246EE
:1044F8000B463046394602F091FE00223B4B03F052
:1045080041F803F0D9FA3A49024606A801F0D4FE68
:1045180003E0384906A801F0CFFE37492D4800F0DE
:1045280033FE0DF12603039309AB02930DF1220329
:10453800019308AB0022009304A92023254800F02A
:1045480043FF2E49234800F01FFE0DF12E0303936D
:104558000BAB02930DF12A0301930AAB00930022DF
:10456800202306A91B4800F02FFFBDF82C30BDF80A
:10457800241018481944C1F173011F2209B200F030
:10458800F6FD1D49134800F0FFFD04A9114802F08B
:104598009DF91A490F4800F0F7FD06A90D4802F0E9
:1045A80095F90C4801F016FB0DB0F0BD144D094803
:1045B8000C22002100F0DBFD1249064800F0E4FD62
:1045C8001F220021034800F0D2FD2946014802F0CD
:1045D8007DF97AE7CCE2032098E2032000E2032089
:1045E8006D940D0010E2032075940D000000244026
:1045F8007B940D007F940D003C9F0D007C970D006F
:10460800DB930D0080930D002DE9F0413148324FC6
:10461800324E01F001FC01F008FF314B5C6901F0FA
:1046280006FF204602F048FF04460D46C7E900454C
:10463800306802F041FF02460B462046294603F047
:1046480009FA284D284C38B901232B60637001F012
:1046580037FC264B18600AE02B6843B101F030FCA8
:10466800224B1B68C01A40F6B833984221D820481C
:1046780000F002FA1E4810EE105A00F0CFF910EEC2
:10468800100A02F02BFF1B4BC3E90001284602F079
:1046980025FF194BC3E90001FFF7A8FD62689042A6
:1046A80003D0114A5060FFF707FEBDE8F041FFF75D
:1046B800EDBE4FF00008C5F80080FFF7ABFE0F4BCA
:1046C80084F8018083ED000BD7E9000103F0F4F9C9
:1046D8003060CCE7CCE20320A8E20320C8E2032044
:1046E800B0E203203CE3032098E2032020E3032008
:1046F80024E3032010E2032000E2032008E2032061
:10470800F0B589B0044602A880E806001D460C20D2
:1047180000230F46039E0693FFF7B9FC10B107600C
:10472800466085600C4B07930C4B06939DF8403010
:104738000490009320469DF93C309DF8382004A948
:1047480001F0A4FE069B04461BB104A903220846F7
:104758009847204609B0F0BDCD400D00BD410D0081
:104768002DE9F0430F46044689B016460221384623
:1047780002F07EFB0221304602F07AFB0023236020
:10478800636063614FF4FA60DFF8A890A760E660A1
:1047980001F08EFB2389D9F800201B01D118D55CC4
:1047A8004B7803F01F0343EA45152846FFF798FCAA
:1047B8002846FFF795FCA389D9F800201B01D118DA
:1047C800D55C4B7803F01F0343EA451510F1000848
:1047D800284618BF4FF00108FFF782FC2846FFF76C
:1047E8007FFC18B148F002085FFA88F8002584F8C1
:1047F80010804FF0FF388DE82001DFF83C90CDF8AD
:1048080010900595029504AA234606CA3846FFF774
:1048180077FF8DE82001CDF818900795029508AA32
:10482800234612E906003046FFF76AFF204609B022
:10483800BDE8F0831CE3032021410D0010B501F011
:1048480047FB0C4C0C4B07211860204601F0A4FADA
:104858000A4A0B49204602F08BFB0F221021094817
:10486800FFF77EFF06230B2205210748BDE810400D
:1048780000F00CB8CCE203201CE3032090E20320F4
:10488800915D0D00B0E2032024E3032010B503720C
:1048980001238171C271037410BD10B50446002153
:1048A800807902F0E5FA0121A07902F0F2FA0023FA
:1048B800E36010BD2DE9F843044601F001FBE3680D
:1048C800834284BF0023E360237C3BB9E368C01ABA
:1048D800B0F5FA6F02D20120BDE8F88300252574EF
:1048E80001F0EEFA0121E0602571A079E570A5706C
:1048F8006570257002F0CDFAFA2001F0EDFC012177
:10490800A07902F0B5FA2946A07902F0C2FA14207B
:1049180001F0E2FC01F089FD0121A07902F0B9FA69
:10492800282001F0C5FA2946A07902F0A1FA2E46FE
:1049380001274FF00008A07902F0C4FAB8425FFAE4
:1049480088F908D1012008F1010801F0B1FAB8F19D
:10495800FF0FF0D1C146A07902F0B4FAB9F1FF0F08
:10496800C7B214D0032D0ED9EB070CD4F2080136C8
:10497800A35C5B00DBB2A354217A49453CBF43F0FA
:104988000103A354F6B20135EDB2552DD1D101F092
:104998004EFD272E0AD92278637821791344A2780C
:1049A8001344E2781344DBB2994294D00020BDE866
:1049B800F883000010B50446FFF77CFF30B3E379B5
:1049C8000B2B04D022D3153B012B06D91EE0A3786C
:1049D80000EE103AB8EE400A10BDA378DFED0D6A7C
:1049E80003F07F0207EE102AE27807EE902AB8EE6D
:1049F800C77AF8EEE77A1B06E7EE267AB2EE047A73
:104A080087EE870A04D5B1EE400A10BD9FED020A71
:104A180010BD00BF000080430000C07FFFF7CABF81
:104A280010B50446FFF746FFF8B1E3790B2B16D013
:104A38001BD3153B012B18D82378DFED0D6A07EE41
:104A4800103A637807EE903AB8EE477AF8EEE77ACC
:104A5800E7EE267AB2EE047A87EE870A10BD23784D
:104A680000EE103AB8EE400A10BD9FED020A10BDE4
:104A7800000080430000C07FFFF7D2BF01F028BAD2
:104A88002DE9F04F85B01E46BDF93830BDF83CA081
:104A980015469A1A002AB8BF52420092721A002A82
:104AA800B8BF524201920C46009A01998A42814647
:104AB80005DD32461E46134622462C461546B442AC
:104AC80005DD2A461D4613462246344616465A1B1D
:104AD800002AB8BF5242C4EB06089D42B4BF012366
:104AE8004FF0FF331FFA88F8029303920FFA88F702
:104AF800022297FBF2F7B4421FDC019A009B934213
:104B0800D9F80030C8BF2246D3F818B0C8BF294624
:104B18005346DCBF2A4621464846D847039BFF1A1E
:104B2800BBB21FB2002F05DA029A08EB030715443F
:104B38002DB23FB2013424B2DDE705B0BDE8F08FF5
:104B480010B404682469A4465DF8044B604730B487
:104B58000468BDF808500295A46BA44630BC6047B1
:104B680030B40468BDF808500295E46BA44630BC24
:104B7800604770B40468BDF90C50BDF81060049625
:104B88000395246CA44670BC604770472DE9F34137
:104B98001C460368BDF820805B6905461646013C43
:104BA80034440F4624B298472B68CDF8048000940B
:104BB8009C6A28463B4632463946A0472B68DB6A42
:104BC800284602B0BDE8F04118472DE9F3411D46DB
:104BD8000368BDF820805B69044617460E4698476F
:104BE8008DE8800122686B1E3344956A20461BB20B
:104BF8003A463146A8472368DB6A204602B0BDE83A
:104C0800F04118472DE9F3471E460368BDF928808F
:104C18005B69BDF82C900C46054617469847264414
:104C2800B4422A680BDACDF80090D2F820A02146C9
:104C380043463A4628460134D04724B2F0E7D36ABF
:104C4800284602B0BDE8F047184713B5B0F90E2062
:104C58000468019100920022B0F90C30246C1146CE
:104C6800A04702B010BD2DE9F74399429046074688
:104C78000E461C46BDF92850BDF82C9002680BD191
:104C8800A845C2BF4346A8461D466B1CCDF82890D0
:104C9800C8EB0303946B0CE0A84513D19942C4BF39
:104CA8000B462646CDF82890C8BF1C46631CD46B1B
:104CB8009B1B1BB2424631463846A44603B0BDE8AA
:104CC800F0436047536998473B688DE820023846AF
:104CD8009D6A424623463146A8473B68DB6A384608
:104CE80003B0BDE8F04318472DE9F3471E460368B3
:104CF800BDF82C805B69BDF9289004460D4617461F
:104D080098472368CDF80080D3F824A03A46334664
:104D180029462046D0472368CDF8008009F1FF32A4
:104D28003A44D3F824A029463346204612B2D04745
:104D38002368CDF80080D3F820A03A464B46294690
:104D48002046D0472368CDF80080711E29442046AC
:104D58001D6A3A464B4609B2A8472368DB6A2046D3
:104D680002B0BDE8F0471847704701F00301012978
:104D780041760389428904D0032902D08381C28104
:104D880070478281C381704730B501810024094D85
:104D980042818181C2814FF6FF7101224460056022
:104DA8004476048244820276C18281828276C47605
:104DB800C46130BD48A20D002DE9F04F91B0914675
:104DC800C26905911E46BDF8683002930446BDF8D5
:104DD8006CA09DF87050002A40F0B780B0F90C30F4
:104DE8008B4240F34581B0F90E304B4540F340818A
:104DF800062313FB0513002B40F33A8109EBC50387
:104E0800002B40F33581C37E1BB9AF2E84BF01361A
:104E1800F6B2236820465B69984705230C93002364
:104E280003931FFA89F3079308339BB20E93052364
:104E38001A46039BDDF81C80CDF8248012FB06334C
:104E48008D4ACDF82880D35C0893BDF814300493BC
:104E5800049A039BAFB203FB07231BB20B932BB23D
:104E68000693BDF80C20049B13FA82F31BB20D9332
:104E7800089BD90710D5012D236803D1D3F818B0A2
:104E8800029B12E0029A0192069A0092D3F81CB093
:104E98001346BDF9282017E0029B534517D0012D72
:104EA800236808D1D3F818B053460FFA88F20D9941
:104EB8002046D8470BE0069A0092CDF804A0D3F814
:104EC8001CB01346BDF924200B992046D847089BEF
:104ED8005B0808930A9B3B449BB20A93099B3B449B
:104EE8009BB2099308F101080E9B1FFA88F8434505
:104EF800BED1039B01335BB203930C9B013B13F0C0
:104F0800FF030C9393D1029B534500F0AA80012D17
:104F180023680AD10499CDF800A005311D6A4A46D4
:104F2800082309B22046A8479BE0049ACDF804A0BC
:104F380007EB87010A44FF0011460097DE694A46DD
:104F48002B4609B22046B0478BE0137AF61A53680D
:104F5800F6B203EBC60613680B93B37896F906A06E
:104F68000793F3780C93012D96F90530089394BFB5
:104F780000230FFA8AF3B6F800B08EBF04931E46DA
:104F88000493036888BFBDF920605B699847ABB29A
:104F98000693BDF814300593059A069B06FB032675
:104FA800B3B20A931FFA89F3002609935344B04613
:104FB80003960F930C9BF2B29A4252D2049BBDF80F
:104FC8001810DDF82890F31813FB01F309990B4426
:104FD8001BB20D930F9B1A4413B24FF0000A0E93A5
:104FE80007995FFA8AF208EB02039142DBB232D9E1
:104FF8005A0707D10B9A0BF1010312F80B20039201
:105008001FFA83FB039B1B061AD5012D0CD1059BA8
:10501800089A991823680E9A9B6951441F4609B249
:10502800029B2046B8470BE00299226801912BB2F7
:105038000093D2690FFA89F1174620460D9AB847AE
:10504800039B5F00FBB20393069B99440AF1010A94
:105058001FFA89F9C4E7079B98445FFA88F8013674
:10506800A8E72368DB6A204611B0BDE8F04F18476F
:1050780011B0BDE8F08F00BF98A20D007FB5C269DE
:1050880004460B46002A2DD10A2905D10282438AFB
:10509800027E03EBC2032EE00D2965D0817E007EDF
:1050A80069B1B4F91050062111FB0051B4F90C5044
:1050B800A942C1BF2282628A02EBC00262820290C8
:1050C800E08A0190A08AB4F912200090B4F9101077
:1050D8002046FFF771FE237E228A03EB430302EB8F
:1050E800430340E00A2908D100230382017E927A13
:1050F800438A01FB0233638236E00D2934D0157AE6
:10510800A94231D3517A99422ED351685D1B01EBE4
:10511800C505A97811B3E87800B3A67E207E8EB1C4
:1051280095F905603144B4F9106000FB0161B4F9E8
:105138000C60B14206DD00212182927A618A02FB6D
:10514800001262820290E08A0190A08A0090B4F96D
:105158001220B4F910102046FFF72EFE2979227E7E
:10516800238A01FB02332382012004B070BD01822F
:1051780042827047002908BF012101767047C18229
:1051880081827047407E7047C36919B133B9438A39
:10519800063302E013B1438A063B4382C16170477C
:1051A8002DE9F74FC469DDF830C0DDF834E0DDF8EB
:1051B8003890DDF83C80002C6AD00A2908D10021FB
:1051C8001180C269017E947A1A8804FB012266E084
:1051D8000D2900F0A980257AA942C0F0A580667A39
:1051E8008E42C0F0A1806468877E491B04EBC10130
:1051F8000E798C78CD78019691F9056091F90610B1
:10520800AFB1B2F900A090F818B037190BFB07A797
:10521800B0F90CA057450ADD00271780C769B3F815
:1052280000A097F80AB0077E0BFB07A71F80007E37
:105238001B88178801FB003106FB007689B20BB288
:1052480005FB0015B6B2BCF9001037B2B942C8BFA9
:10525800ACF80070BEF900109942C8BFAEF8003033
:1052680004FB0064B9F900300199013C24B2A3425F
:10527800B8BFA9F80040B8F90030013D2DB2AB42E3
:10528800B8BFA8F80050138801FB003010804BE02D
:105298000A2906D11480017E1A8802EBC1021A80FD
:1052A80042E00D2940D0817E79B1B2F90010067E26
:1052B800062515FB0611B0F90C50A94205DD14802E
:1052C800047E198801EBC4011980057EB2F900102B
:1052D800062414FB0514B3F9001001EBC501B9F954
:1052E8000050013CAC42C8BFA9F80040B8F90040E2
:1052F8000139A142C8BFA8F80010B2F90010BCF9E2
:1053080000408C42C8BFACF80010B3F90030BEF9B9
:1053180000109942C8BFAEF80030037E118803EB35
:10532800430301EB4303138003B0BDE8F08F2DE97D
:10533800F04788B00646DDF84080119D129F139C07
:10534800A8F80020ADF814302B80002323803B8080
:105358008389ADF81830C389ADF81A304FF6FF735A
:105368008946ADF81620ADF81C30ADF81E300DF1A9
:105378001E0A19F8011B79B107AB02930DF11A0344
:10538800019306AB0093CDF80CA005AB0DF1160206
:105398003046FFF705FFECE7BDF91C30BDF91820D2
:1053A8009342A1BF01339B1AA8F800203B80BDF9A6
:1053B8001A20BDF91E309342A1BF01339B1A2A80DF
:1053C800238008B0BDE8F08710B45DF8044BFFF700
:1053D800AEBF00F07DBD0000F0B5447EBDF814609E
:1053E800022C09D0032C10D0012C40F09D80048998
:1053F800013CA21A12B20CE04489013CA21A0489A9
:10540800E41A611A12B209B28EE04489E41A611AE8
:1054180009B2002AC0F28780B0F90840944240F3EC
:10542800CD800029BEBF5B181BB20021B0F90A402D
:10543800CD18A542C4BF631A1BB2002B40F3BE802F
:10544800C9B2056A076BCC0805FB042211F00701F5
:10545800DBB207EB02052FD0C1F10804E4B25849CA
:10546800A342095D0DD2C3EB040C4FF0FF0E4EFAB8
:105478000CFE012E0EEA010105D00AD3022E0FD030
:10548800F0BD012E04D117F802E041EA0E010BE04D
:1054980004D217F802E02EEA010105E0022E07D136
:1054A80017F802E081EA0E01A342B954C0F08680E1
:1054B800026A1B1BDBB21544072B1AD9022E0AD12C
:1054C8001A462978C9432970083A016AD2B2072ACC
:1054D8000D44F6D81FE0012E0CBFFF2400241A4605
:1054E8002C70083A016AD2B2072A0D44F8D803F0A2
:1054F8000703002B62D0334A012ED35C03D005D3B7
:10550800022E5BD10CE02A78134302E02A7822EAC3
:1055180003032B70F0BD13F007034FD0294AD35C67
:105528002A785340F5E7F0BD002A46DBB0F90A4077
:10553800944243DD0029BCBFC9180BB2B0F908403A
:10554800B8BF0021CD18A542C4BF631A1BB2002BF7
:1055580034DD056B006A082492FBF4F400FB0411A7
:10556800681802F00702012101FA02F28E42D2B253
:1055780003D00CD3022E16D0F0BD013B1BB25D1C2C
:105588001CD010F8011B114300F8011CF5E7D243A9
:10559800D2B2013B1BB25C1C10D010F8011B1140A9
:1055A80000F8011CF5E7013B1BB2591C06D010F8A6
:1055B800011B514000F8011CF5E7F0BDF0BD00BF2C
:1055C80020E2032018E20320F0B5447EBDF8145011
:1055D800022C08D0032C0FD0012C60D10489E41AC6
:1055E800A21A12B20CE00489013C611A4489E41A37
:1055F800A21A09B212B252E04489013C611A09B2F6
:1056080000294BDBB0F90A408C4240F3CF80002AD6
:10561800BCBFD21813B2B0F90840B8BF0022D618E0
:10562800A642C4BFA31A1BB2002B40F3BF80066B6F
:10563800006A082491FBF4F400FB0422B01801F07E
:105648000701012202FA01F19542C9B203D00DD334
:10565800022D18D0F0BD013B1BB25D1C00F0A680E6
:1056680010F8012B0A4300F8012CF4E7C943C9B22A
:10567800013B1BB25C1C00F0998010F8012B0A401A
:1056880000F8012CF4E7013B1BB25A1C00F08E8095
:1056980010F8012B4A4000F8012CF4E7F0BD00296E
:1056A800C0F28380B0F908408C427FDD002ABEBF7B
:1056B8009B181BB20022B0F90A40D618A642C4BFF4
:1056C800A31A1BB2002B71DDD2B2066A076BD4088D
:1056D80006FB041112F00702DBB207EB01062ED01D
:1056E800C2F10804E4B2324AA342125D0DD2C3EB00
:1056F800040C4FF0FF0E4EFA0CFE012D0EEA0202CA
:1057080005D00AD3022D0FD0F0BD012D04D117F812
:1057180001E042EA0E020BE004D217F801E02EEA9B
:10572800020205E0022D06D117F801E082EA0E0216
:10573800A3427A543AD3026A1B1BDBB21644072BE6
:105748001AD9022D0AD11A463178C9433170083A5C
:10575800016AD2B2072A0E44F6D81DE0012D0CBF0B
:10576800FF2400241A463470083A016AD2B2072A84
:105778000E44F8D803F00703C3B10E4A012DD35CD9
:1057880003D005D3022D11D10BE0327813430AE080
:10579800327822EA030306E013F0070306D0054A2D
:1057A800D35C327853403370F0BDF0BDF0BD00BF1C
:1057B80020E2032018E20320704710B53421044684
:1057C80001F0DBFB204610BDF8B50E1E0546144659
:1057D8001F4657DB036A9E4254D2002A52DB436AB3
:1057E8009A424FD2FFF7CEFC022809D0032810D0E6
:1057F800012813D12B6A013B1B1B34461EB20DE056
:10580800296A6A6A0139013A8E1B141B36B224B21E
:1058180004E06B6A013B9B1B26461CB2012F03D098
:1058280010D3022F1FD0F8BD2B6A082194FBF1F189
:1058380003FB0166296B04F007048B5DA7401F4337
:105848008F55F8BD296A286B082394FBF3F301FBF5
:10585800036604F00704835D012101FA04F423EAD6
:1058680004048455F8BD296A082394FBF3F301FB6B
:105878000366296B04F007048B5D012202FA04F425
:105888005C408C55F8BD00002DE9F04104460F46F8
:10589800154609B212B200269846FFF775FAFF229C
:1058A800114B236005FB07F084F82A2084F82E208A
:1058B80084F82C2084F82B202762656284F82860FD
:1058C80084F8296084F82F6084F82D80C008FEF7DA
:1058D800E0FB226A636A20635A43D208314602F029
:1058E8002CF92046BDE8F081A0A70D00026A436AA2
:1058F800006B5A43D208002102F01FB9F8B590F89E
:105908002F3005460F4623B11048BDE8F84001F096
:10591800B9B80826802495F92B00002180B201F03F
:10592800B8FA95F92A0017EA040118BF012180B2D4
:1059380001F0AFFA95F92B00012180B201F0A9FA24
:10594800013E4FEA5404E6D1F8BD00BF30E703201A
:1059580038B590F92A30013304460D461DD090F928
:105968002E00012180B201F094FA94F92C00002154
:1059780080B201F08EFA94F92E00002180B201F075
:1059880088FA29462046FFF7B9FF94F92E0001212D
:1059980080B2BDE8384001F07CBA01F0A7FA94F96A
:1059A800281000F02BFD01F0A1FA036800219B6884
:1059B800984701F09BFA036829469B68984701F0CD
:1059C80095FABDE8384000F020BD000070B50446E7
:1059D8001E4684F8291090F92A3080F828200133CF
:1059E8000D4625D090F92C00012180B201F040FA33
:1059F80094F92E00012180B201F03AFA94F82F3080
:105A08005BB994F92A00012180B201F031FA94F9C6
:105A18002B00012180B201F02BFA94F82F305BB1F2
:105A28006B4800F0CFFF0421694801F017F803E044
:105A380001F05CFA00F0D8FCFEB194F92D000028C2
:105A48001BDB012180B201F013FA94F92D0001212A
:105A580080B201F01EFA012000F03EFC94F92D00FE
:105A6800002180B201F015FA0A2000F035FC94F903
:105A78002D00012180B201F00CFAAE212046FFF77B
:105A880067FFD5212046FFF763FF80212046FFF7F7
:105A98005FFFA8212046FFF75BFF616A0139C9B2A1
:105AA8002046FFF755FFD3212046FFF751FF00217D
:105AB8002046FFF74DFF40212046FFF749FF8D2183
:105AC8002046FFF745FF012D0CBF10211421204669
:105AD800FFF73EFF20212046FFF73AFF002120462E
:105AE800FFF736FFA1212046FFF732FFC8212046E5
:105AF800FFF72EFF236A802B12D1636A202B0FD168
:105B0800DA212046FFF724FF02212046FFF720FF75
:105B180081212046FFF71CFF8F212046FFF718FF41
:105B2800236A802B15D1636A402B12D1DA212046D3
:105B3800FFF70EFF12212046FFF70AFF81212046BA
:105B4800FFF706FF012D0CBF9F21CF212046FFF74D
:105B5800FFFE236A602B15D1666A102E12D1DA2156
:105B68002046FFF7F5FE02212046FFF7F1FE8121CE
:105B78002046FFF7EDFE012D0CBF3146AF21204630
:105B8800FFF7E6FED9212046FFF7E2FE012D0CBF04
:105B98002221F1212046FFF7DBFE2046DB21FFF71B
:105BA800D7FE20464021FFF7D3FE2046A421FFF769
:105BB800CFFE2046A621FFF7CBFE20462E21FFF779
:105BC800C7FE2046AF21BDE87040FFF7C1BE00BF49
:105BD80030E70320F8B521210446FFF7B9FE00217C
:105BE8002046FFF7B5FE216A0139C9B22046FFF702
:105BF800AFFE22212046FFF7ABFE00212046FFF72B
:105C0800A7FE636A402B03D107212046FFF7A0FEB9
:105C1800636A202B03D103212046FFF799FE636AAC
:105C2800102B03D101212046FFF792FE94F92A3068
:105C3800013301D100253BE094F92E00012180B207
:105C480001F027F994F92C00012180B201F021F923
:105C580094F92E00002180B201F01BF90025216A79
:105C6800636AAAB24B43B2EBD30F05F1010505D223
:105C7800236B2046995CFFF741FEF0E794F92E006C
:105C8800012180B2BDE8F84001F003B901F02EF916
:105C9800AF19226B0368BFB29B68D15D0136984784
:105CA800102EF3D11035ADB201F020F900F0ADFBA4
:105CB800226A636A5343B5EBD30F0DD201F016F98C
:105CC80094F9281000F09AFB01F010F903684021BC
:105CD8009B6898470026D9E7F8BD00F0F9B800227C
:105CE8000A21026081808271C2717047002310B559
:105CF8000446C171837188B201F0E4F808B1032346
:105D0800A37100F0DDF8206010BD38B50C460546DB
:105D18001146A0B201F0ACF821462846BDE838404B
:105D2800FFF7E4BF38B50446C07901F0CBF8A37992
:105D3800051C23F0080218BF0125C3F340039D4248
:105D4800A27106D000F0BCF8A379206083F00203AA
:105D580013E000F0B5F82368C01AA38898420DD361
:105D6800A37903F001039D4208D000F0A9F8A379B4
:105D7800206083F0010343F00803A371A079C0F306
:105D8800C00038BD00F0A4B8704710B550210446D3
:105D980001F0F3F8204610BD38B5202204460D4620
:105DA8004FF0FF338021FFF76FFD084B23606563D9
:105DB80004F13800FFF793FF04F14000FFF78FFF6D
:105DC80004F14800FFF78BFF204638BDF8A70D0007
:105DD80010B5436BD907044604D502220421383094
:105DE800FFF793FF636B9A0705D50022032104F19F
:105DF8004000FFF78AFF636B5B0705D50222114657
:105E080004F14800FFF781FF204601233C220221CC
:105E1800BDE81040FFF7DABD10B5436BD90704465B
:105E280002D53830FFF77EFF636B9A0703D504F17C
:105E38004000FFF777FF636B5B0705D504F1480067
:105E4800BDE81040FFF76EBF10BD00F041B800007C
:105E580008B5024B1B689B68019308BD4802030004
:105E680008B5024B1B681B69019308BD4802030073
:105E780008B5024B1B685B69019308BD4802030023
:105E880008B5024B1B681B6B019308BD4802030051
:105E980008B5024B1B685B6C019308BD4802030000
:105EA80008B5024B1B685B68019308BD1802030024
:105EB80008B5024B1B68DB68019308BD1802030094
:105EC80008B5024B1B685B69019308BD1802030003
:105ED80008B5024B1B681B68019308BD2C02030020
:105EE80008B5024B1B689B68019308BD2C02030090
:105EF80008B5024B1B68DB68019308BD2C02030040
:105F080008B5024B1B681B69019308BD2C020300EE
:105F180008B5024B1B685B69019308BD2C0203009E
:105F280008B5024B1B689B69019308BD2C0203004E
:105F380008B5024B1B68DB69019308BD2C020300FE
:105F480008B5024B1B681B6A019308BD2C020300AD
:105F580008B5024B1B685B6A019308BD2C0203005D
:105F680008B5024B1B68DB68019308BD28020300D3
:105F780008B5024B1B689B69019308BD2802030002
:105F880008B5024B1B68DB69019308BD28020300B2
:105F980008B5024B1B681B6A019308BD2802030061
:105FA80008B5024B1B685B6A019308BD2802030011
:105FB80008B5024B1B689B6A019308BD28020300C1
:105FC80008B5024B1B68DB6A019308BD2802030071
:105FD80008B5024B1B681B6B019308BD2802030020
:105FE80008B5024B1B685B6B019308BD28020300D0
:105FF80008B5024B1B681B6C019308BD28020300FF
:1060080008B5024B1B685B69019308BD6402030075
:1060180008B5024B1B689B68019308BD6802030022
:1060280008B5024B1B68DB68019308BD68020300D2
:1060380008B5024B1B681B68019308BD30020300BA
:1060480008B5024B1B681B69019308BD30020300A9
:1060580008B5024B1B685B69019308BD3002030059
:1060680008B5024B1B68DB69019308BD30020300C9
:1060780008B5024B1B681B6A019308BD3002030078
:1060880008B5024B1B685B6A019308BD3002030028
:1060980008B5024B1B681B68019308BD3C0203004E
:1060A80008B5024B1B68DB68019308BD3C0203007E
:1060B80008B5024B1B681B69019308BD3C0203002D
:1060C80008B5024B1B685B69019308BD3C020300DD
:1060D80008B5024B1B689B69019308BD3C0203008D
:1060E80008B5024B1B68DB69019308BD3C0203003D
:1060F80008B5024B1B681B6A019308BD3C020300EC
:1061080008B5024B1B689B6A019308BD3C0203005B
:1061180008B5024B1B681B68019308BD4C020300BD
:1061280008B5024B1B685B68019308BD4C0203006D
:1061380008B5024B1B681B69019308BD4C0203009C
:1061480008B5024B1B685B69019308BD4C0203004C
:1061580008B5024B1B689B69019308BD4C020300FC
:1061680008B5024B1B68DB69019308BD4C020300AC
:1061780008B5024B1B681B6A019308BD4C0203005B
:1061880008B5024B1B685B6B019308BD60020300F6
:1061980008B5024B1B685B68019308BD2002030029
:1061A80008B5024B1B685B69019308BD2002030018
:1061B80008B5034B1B68D3F88830019308BD00006D
:1061C8002002030008B5034B1B68D3F894300193F1
:1061D80008BD00002002030008B5024B1B681B68BD
:1061E800019308BD4402030008B5024B1B68DB6B32
:1061F800019308BD4402030008B5024B1B685B68A5
:10620800019308BD4002030008B5024B1B689B6858
:10621800019308BD4002030008B5024B1B68DB6808
:10622800019308BD4002030008B5024B1B681B69B7
:10623800019308BD4002030008B5024B1B685B6967
:10624800019308BD4002030008B5024B1B689B6917
:10625800019308BD4002030008B5024B1B68DB69C7
:10626800019308BD4002030008B5024B1B681B6A76
:10627800019308BD4002030008B5024B1B681B6B65
:10628800019308BD4002030008B5024B1B685B6B15
:10629800019308BD4002030008B5024B1B681B6848
:1062A800019308BD1C02030008B5024B1B685B681C
:1062B800019308BD1C02030008B5024B1B68DB688C
:1062C800019308BD1C02030008B5024B1B68DB6A7A
:1062D800019308BD1C0203000021FFF761BF10B540
:1062E8008368044613B1032201469847204610BD2F
:1062F800002211464068FFF7B7BF002211464068E8
:10630800FFF7C2BF00224068FFF7B6BF002281F046
:1063180001014068FFF7A0BF00231A4619464068EC
:10632800FFF792BF00231A4619464068FFF784BF5B
:10633800002211464068FFF777BF002211464068E7
:10634800FFF762BF002202214068FFF765BF002304
:106358001A464068FFF750BF024B03225A60024AB0
:106368001A60704740E3032050A80D007047F8B545
:10637800064615460C468F18BC4206D0336814F8FA
:10638800011B9B6830469847F6E72846F8BD00226F
:10639800007CFFF7FDBD0021007CFFF701BE002156
:1063A800007CFFF705BE0021007CFFF709BE002135
:1063B800007CFFF70DBE10B51421044600F0DDFD8A
:1063C800204610BD10B504464FF47A730846A36002
:1063D8000021044B207461602360FFF709FE20460A
:1063E80010BD00BF84A80D0000231A461946007C82
:1063F800FFF7B6BD0022007CFFF7BABDC9B2FFF7B0
:10640800F9BF0022007CFFF7BBBD0121FFF7F9BFF0
:106418000021007CFFF7E4BD826810B50AB900F0DE
:10642800AEFDC368BDE810401847FFF791BDFFF700
:1064380087BD38B5002383608B6804460D462BB1B1
:1064480002229847EB68E360AB68A360204638BD3A
:10645800F8B50D4B53F8205006460F461C4635B18B
:106468002846FFF73CFF1021284600F086FD102043
:10647800FDF70DFE054610B13946FFF7DAFF44F87F
:1064880026502846F8BD00BF48E30320F0B50C4667
:1064980085B0054617461E46FFF74AFD21462846A1
:1064A800FFF7D6FF0446B0B1002104238E420391C2
:1064B8008DF80C30A5BF9DF828308DF80E300B46AE
:1064C80003AB009302463B460549A8BF8DF80D6013
:1064D8002846FFF725FD201C18BF012005B0F0BD98
:1064E80021640D00704710B51821044600F045FDE1
:1064F800204610BDF0B5037D062B8DB00E4600F189
:1065080004074FF0000402D000F1080518E00CADB4
:10651800394605F8304D2F232A460A20FFF770FD2B
:10652800284601F03BFB33680246DB6829463046C3
:1065380098470FE024B12E21304600F0CBF90444EF
:1065480015F8011D0A22304600F00AFABD4204443B
:10655800F0D120460DB0F0BD10B5054B0446112210
:1065680040F8043B002101F0E8FA204610BD00BFC6
:10657800ACA80D000346074A10B543F8042B01F1F7
:10658800100251F8044B43F8044B9142F9D10A78B0
:106598001A7010BDACA80D0010B59DF8084044EA6B
:1065A800032343EA024242EA01610423416003757E
:1065B80010BD37B50D788B784A78C978009129468F
:1065C800FFF7EAFF03B030BD014B024A1A6070477B
:1065D800D8E303206BA90D00002211464068FFF79D
:1065E80043BE002211464068FFF74EBE00224068B5
:1065F800FFF742BE002281F001014068FFF72CBE80
:1066080000231A4619464068FFF71EBE00231A46A3
:1066180019464068FFF710BE002211464068FFF790
:1066280003BE002211464068FFF7EEBD002202219A
:106638004068FFF7F1BD00231A464068FFF7DCBD4C
:1066480038B5054688B104684CB1A3681BB103226C
:106658002146204698471021204600F08EFC284607
:106668001421BDE8384000F088BC38BD10B103687B
:106678005B681847704710B503680446BBB1586893
:10668800FFF7E6FB78B923685A7C12B95868FFF718
:10669800E7FB23685868FFF7EBFB206800232360BB
:1066A80028B1FFF7CDFF206808B1FFF7C9FF2046E2
:1066B80010BD000038B50C4B03600446D0F8CC017F
:1066C80008B1FDF7EAFCD4F8C45135B12846FFF704
:1066D800D2FF0421284600F050FCA06808B1FFF75B
:1066E800C5FF204638BD00BF9CA90D0038B50D4C2C
:1066F8000D4B23600025022304F5E4706360A56058
:10670800C4F8C451C4F8C851FFF7C2FB074BC4F81A
:10671800CC5123602046064A0649BDE8384000F0BF
:1067280027BC00BFDCE30320D0A90D009CA90D0005
:1067380090E20320BD660D0000231A464068FFF76B
:106748005BBD002202214068FFF766BD00221146AA
:106758004068FFF759BD002211464068FFF764BD45
:1067680000231A4619464068FFF766BD00231A46FB
:1067780019464068FFF768BD002281F001014068B2
:10678800FFF76ABD00224068FFF776BD0022114678
:106798004068FFF779BD002211464068FFF764BDE5
:1067A8002DE9F043002495B016460D460746FFF73D
:1067B800D3FE214620220CA8009401F0BEF9402304
:1067C8000C9321466B460CAA3046FFF729FC044679
:1067D800002844D1024601216868FFF725FD0221FF
:1067E800804622466868FFF71FFD009E81462146C5
:1067F800002E34D0002932D17368022B02D00A2B24
:1068080009D02AE0B8F1000F27D071693846043161
:10681800FFF7CFFE20E0B9F1000F1ED074691122F6
:1068280001A801F08AF906238DF8143001AD04F1AE
:1068380008031834186859682A4603C20833A34263
:106848001546F7D101A906A807ADFFF793FE0FCDAE
:106858003C1D0FC42B6823700121F669C8E7009816
:10686800FFF7D6FB384615B0BDE8F083024B034A64
:106878001A6000225A607047ACE50320D0A90D00C9
:10688800F8B506460D468F180024BD420CD0336873
:1068980015F8011B9B6830469847002801DB044423
:1068A800F3E7002C08BF04462046F8BD70B505463E
:1068B8000C46084649B101F071F92B680246214699
:1068C8002846DB68BDE87040184770BD08B5FFF77B
:1068D800EDFF08BD03689B68184738B50D210546CC
:1068E800FFF7F8FF0A2104462846FFF7F3FF204484
:1068F80038BD38B50546FFF7D9FF04462846FFF7E7
:10690800ECFF204438BD30B58BB00B4600218DF824
:106918002410012A98BF0A220DF12304B3FBF2F5D3
:1069280005FB123303F0FF03092B94BF30333733D1
:10693800DBB2214604F801392B46002DEED1FFF7D2
:10694800B5FF0BB030BD10B42AB903685DF8044B2D
:106958009B68C9B21847D2B25DF8044BFFF7D3BFA2
:10696800FFF7F1BF10B50446FFF7B9FC204610BD8C
:106978000348044A04490023836000F0F9BA00BFC1
:10698800B4E5032090E203206D690D00704710B54F
:106998001021044600F0F1FA204610BD70B5084BEE
:1069A8000360044600250E4640F80C5FFFF768FABE
:1069B80030462671FFF754FBA560204670BD00BF26
:1069C80004AA0D004FF6FF710079FFF731BB0000F4
:1069D800054A0023995C814202D00133082BF9D182
:1069E800581CC0B2704700BF0CAA0D00400830B553
:1069F8001860002418688842E5B206D90134082CCA
:106A080002D040081860F5E70725024B5B5D13705C
:106A180030BD00BF0CAA0D0070B588B0067902FB26
:106A280001F504461422002103A801F086F80B237F
:106A380003A930460022ADF80C30FFF721FB02AB6A
:106A48000DF1070229460498FFF7D0FF20799DF839
:106A58000710FFF7F5FA029808B070BD38B504467C
:106A68000846A5684DB1FFF7B3FF012225FA00F1EA
:106A78002046BDE83840FFF7CFBF2079BDE8384051
:106A8800FFF7DEBA08B50079FFF7E2FAC0B208BD31
:106A98000079FFF7EDBA0000044B00204FF6FF72B3
:106AA800187058809A80FFF773BB00BFC4E50320B5
:106AB800024B1A68024B1A60704700BF28E2032095
:106AC800CCE5032070474174704708B5007CFFF798
:106AD80017FB20EAE07008BD08B5007CFFF7E8FA6C
:106AE80020EAE07008BD08B5007CFFF7F1FA30EA4B
:106AF800200028BF4FF0FF3008BD08B5007CFFF725
:106B0800DFFA30EA200028BF4FF0FF3008BD007CD4
:106B1800FFF7E6BA10B51421044600F02EFA204615
:106B280010BD70B5457C04460E4625B9007CFFF7BC
:106B3800E7FA002805DD3146207CBDE87040FFF704
:106B4800AFBA284670BD000010B504460846114685
:106B5800002262604FF47A72A260054A2260012224
:106B6800207462741A46FFF793FA204610BD00BFDE
:106B780048AA0D00007CFFF7BBBA000038B50C4DE1
:106B8800296811F0010411D12846FDF793FA68B17C
:106B9800084A094B09482146FFF7D6FF2846FDF762
:106BA8008EFA074A0749054800F0E2F9034838BD5C
:106BB80068E603206CE60320E4E50320D0E5032023
:106BC80090E20320CD6A0D0041747047704708B504
:106BD8000021007CFFF7BCFA30EA200028BF4FF004
:106BE800FF3008BD08B50121007CFFF7B1FA30EA93
:106BF800200028BF4FF0FF3008BD08B5007CFFF724
:106C08009FFA20EAE07008BD08B5007CFFF790FA0B
:106C180020EAE07008BD007CFFF7AABA10B514217D
:106C2800044600F0AAF9204610BD38B50446007C99
:106C38000D46FFF785FA002801DC607C28B129465B
:106C4800207CFFF78DFA20EAE07038BD10B50446C5
:106C5800002363604FF47A73A360054B236001231C
:106C68000846217463741146FFF752FA204610BD96
:106C780078AA0D000022007CFFF752BA10B5142242
:106C88000446002100F059FF204610BD30B50E4DD6
:106C980087B001A8FFF7F2FF296811F0010410D1AD
:106CA8002846FDF707FA60B101AA21460748FFF711
:106CB800CDFF2846FDF703FA054A0649034800F0C8
:106CC80057F9024807B030BDF0E60320F4E6032088
:106CD80090E20320D56B0D00002211464068FFF7B3
:106CE800A3BA002211464068FFF7BEBA0022114637
:106CF8004068FFF7C9BA00224068FFF7BDBA002212
:106D080081F001014068FFF7A7BA00231A46194627
:106D18004068FFF799BA00231A4619464068FFF7FA
:106D28008BBA002211464068FFF76EBA0022022192
:106D38004068FFF771BA00231A464068FFF75CBA4B
:106D4800024B04225A60024A1A60704708E703207F
:106D5800A8AA0D0008B50C4B33B1FFF797FF0368DD
:106D68001B699847002809DC084B63B1FFF706FF49
:106D780003681B699847002803DC08BDAFF300804F
:106D8800F2E7AFF3008008BD00000000000000003B
:106D980008B5FFF7DFFFFFF793F8014B186008BD50
:106DA80014E7032007B5002300931A466FF0770114
:106DB800FFF708FA03B05DF804FB000007B5438845
:106DC8000A2B08D0502B09D1094B1B683BB103B0E3
:106DD8005DF804EB1847FFF7E5FF06E00023009392
:106DE8001A466FF07701FFF7EDF903B05DF804FB81
:106DF80010E7032010B5FFF753F8044600F0A6FE8D
:106E0800074B13B12046AFF3008000210448FFF779
:106E1800EBF900210348BDE81040FFF7C9B900BFEE
:106E280000000000C56D0D0010B504460F48FFF7BF
:106E38002FFE28B1A4F10B03022B01D8002010BDAE
:106E480000F054F8FFF7E4FA08B1012CF6D9FFF77F
:106E580095FEFFF78FFE18B1A4F10903012BEDD9B8
:106E6800232C8CBF0020012010BD00BF30E7032079
:106E7800232838B504460D460AD8FF2908D0FFF75D
:106E8800D3FF28B129462046BDE83840FFF728B887
:106E980038BD38B504460D46FFF72AF8FF2810D04C
:106EA800062804D84D2323FA00F0C30709D4204646
:106EB800FFF7BAFF28B129462046BDE83840FFF75A
:106EC8001FB838BD10B50446FFF712F80438C0B231
:106ED800012808D92046FFF7A7FF20B12046BDE8C2
:106EE8001040FFF715B8002010BD000038B50B4D55
:106EF800296811F001040FD12846FDF7DBF858B1D5
:106F080021460748FFF75EFA2846FDF7D8F8054AF4
:106F18000549034800F02CF8014838BD18E703205C
:106F28001CE7032090E2032075630D0070B50C4C3C
:106F38000C4E0D4D00212046FFF730FD20460B4C2E
:106F48003246294600F014F801212046FFF726FDB5
:106F5800324629462046BDE8704000F009B800BF17
:106F680030E7032090E2032095690D0040E70320F5
:106F78000B460146184600F0C7BDFDF78CB808B5AA
:106F8800FFF7A2F9244B1A68D0075CBF01221A60E8
:106F9800224B1A68D1075CBF01221A60204B1A687D
:106FA800D2075CBF01221A601E4B1A68D0075CBF6B
:106FB80001221A601C4B1A68D1075CBF01221A60B3
:106FC8001A4B1A68D2075CBF01221A60184B1A685C
:106FD800D0075CBF01221A60164B1A68D1075CBF44
:106FE80001221A60144B1A68D2075CBF01221A608A
:106FF800124B1A68D0075CBF01221A60104B1A683E
:10700800D1075CBF01221A600E4B1A68D2075CBF19
:1070180001221A60704700BF7CE7032078E703204D
:1070280074E7032070E703206CE7032068E7032078
:1070380064E7032060E703205CE7032058E70320A8
:1070480054E7032050E70320184B1A68D1075CBFA8
:1070580001221A60164B1A68D2075CBF01221A6017
:10706800144B1A68D0075CBF01221A60124B1A68C9
:10707800D1075CBF01221A60104B1A68D2075CBFA7
:1070880001221A600E4B1A68D0075CBF01221A60F1
:107098000C4B1A68D1075CBF01221A600A4B1A68A8
:1070A800D2075CBF01221A60704700BF9CE703202B
:1070B80098E7032094E7032090E703208CE7032058
:1070C80088E7032084E7032080E70320184B1A6829
:1070D800D1075CBF01221A60164B1A68D2075CBF41
:1070E80001221A60144B1A68D0075CBF01221A608B
:1070F800124B1A68D1075CBF01221A60104B1A683C
:10710800D2075CBF01221A600E4B1A68D0075CBF19
:1071180001221A600C4B1A68D1075CBF01221A6061
:107128000A4B1A68D2075CBF01221A60704700BF79
:10713800BCE70320B8E70320B4E70320B0E7032047
:10714800ACE70320A8E70320A4E70320A0E7032077
:10715800244B1A68D0075CBF01221A60224B1A68B8
:10716800D1075CBF01221A60204B1A68D2075CBFA6
:1071780001221A601E4B1A68D0075CBF01221A60F0
:107188001C4B1A68D1075CBF01221A601A4B1A6897
:10719800D2075CBF01221A60184B1A68D0075CBF7F
:1071A80001221A60164B1A68D1075CBF01221A60C7
:1071B800144B1A68D2075CBF01221A60124B1A6876
:1071C800D0075CBF01221A60104B1A68D1075CBF58
:1071D80001221A600E4B1A68D2075CBF01221A609E
:1071E800704700BFECE70320E8E70320E4E703204B
:1071F800E0E70320DCE70320D8E70320D4E70320F7
:10720800D0E70320CCE70320C8E70320C4E7032026
:10721800C0E7032081F0004102E000BF83F0004393
:1072280030B54FEA41044FEA430594EA050F08BF19
:1072380090EA020F1FBF54EA000C55EA020C7FEADD
:10724800645C7FEA655C00F0E2804FEA5454D4EB5A
:107258005555B8BF6D420CDD2C4480EA020281EA24
:10726800030382EA000083EA010180EA020281EA5C
:107278000303362D88BF30BD11F0004F4FEA0131AE
:107288004FF4801C4CEA113102D0404261EB4101BD
:1072980013F0004F4FEA03334CEA133302D0524243
:1072A80063EB430394EA050F00F0A780A4F10104FF
:1072B800D5F1200E0DDB02FA0EFC22FA05F2801839
:1072C80041F1000103FA0EF2801843FA05F359411F
:1072D8000EE0A5F120050EF1200E012A03FA0EFC9E
:1072E80028BF4CF0020C43FA05F3C01851EBE371C8
:1072F80001F0004507D54FF0000EDCF1000C7EEBE5
:1073080000006EEB0101B1F5801F1BD3B1F5001F22
:107318000CD349085FEA30004FEA3C0C04F1010441
:107328004FEA445212F5800F80F09A80BCF1004F6A
:1073380008BF5FEA500C50F1000041EB045141EAEC
:10734800050130BD5FEA4C0C404141EB010111F4ED
:10735800801FA4F10104E9D191F0000F04BF014698
:107368000020B1FA81F308BF2033A3F10B03B3F176
:1073780020020CDA0C3208DD02F1140CC2F10C0206
:1073880001FA0CF021FA02F10CE002F11402D8BF64
:10739800C2F1200C01FA02F120FA0CFCDCBF41EA30
:1073A8000C019040E41AA2BF01EB0451294330BDFF
:1073B8006FEA04041F3C1CDA0C340EDC04F11404DC
:1073C800C4F1200220FA04F001FA02F340EA0300B3
:1073D80021FA04F345EA030130BDC4F10C04C4F1F9
:1073E800200220FA02F001FA04F340EA03002946D9
:1073F80030BD21FA04F0294630BD94F0000F83F423
:10740800801306BF81F480110134013D4EE77FEA05
:10741800645C18BF7FEA655C29D094EA050F08BF51
:1074280090EA020F05D054EA000C04BF1946104632
:1074380030BD91EA030F1EBF0021002030BD5FEA76
:10744800545C05D14000494128BF41F0004130BD9E
:1074580014F580043CBF01F5801130BD01F00045F2
:1074680045F0FE4141F470014FF0000030BD7FEA65
:10747800645C1ABF194610467FEA655C1CBF0B4660
:10748800024650EA013406BF52EA033591EA030F77
:1074980041F4002130BD00BF90F0000F04BF00216F
:1074A800704730B54FF4806404F132044FF00005A2
:1074B8004FF0000150E700BF90F0000F04BF00211B
:1074C800704730B54FF4806404F1320410F0004581
:1074D80048BF40424FF000013EE700BF42004FEA7C
:1074E800E2014FEA31014FEA02701FBF12F07F43F9
:1074F80093F07F4F81F06051704792F0000F14BFF6
:1075080093F07F4F704730B54FF4607401F0004539
:1075180021F0004120E700BF50EA010208BF704790
:1075280030B54FF000050AE050EA010208BF704785
:1075380030B511F0004502D5404261EB41014FF4EE
:10754800806404F132045FEA915C3FF4DCAE4FF0F2
:1075580003025FEADC0C18BF03325FEADC0C18BFD9
:10756800033202EBDC02C2F1200300FA03FC20FA2A
:1075780002F001FA03FE40EA0E0021FA02F1144477
:10758800C1E600BF70B54FF0FF0C4CF4E06C1CEA8C
:1075980011541DBF1CEA135594EA0C0F95EA0C0F01
:1075A80000F0DEF82C4481EA030621EA4C5123EA74
:1075B8004C5350EA013518BF52EA033541F48011A3
:1075C80043F4801338D0A0FB02CE4FF00005E1FB56
:1075D80002E506F00042E0FB03E54FF00006E1FBA0
:1075E80003569CF0000F18BF4EF0010EA4F1FF04E3
:1075F800B6F5007F64F5407404D25FEA4E0E6D4123
:1076080046EB060642EAC62141EA55514FEAC52033
:1076180040EA5E504FEACE2EB4F1FD0C88BFBCF5AF
:10762800E06F1ED8BEF1004F08BF5FEA500E50F160
:10763800000041EB045170BD06F0004646EA010126
:1076480040EA020081EA0301B4EB5C04C2BFD4EB58
:107658000C0541EA045170BD41F480114FF0000E51
:10766800013C00F3AB8014F1360FDEBF002001F0BF
:10767800004170BDC4F10004203C35DA0C341BDC39
:1076880004F11404C4F1200500FA05F320FA04F00B
:1076980001FA05F240EA020001F0004221F000413F
:1076A80010EBD37021FA04F642EB06015EEA430EB2
:1076B80008BF20EAD37070BDC4F10C04C4F12005E2
:1076C80000FA04F320FA05F001FA04F240EA020095
:1076D80001F0004110EBD37041F100015EEA430E66
:1076E80008BF20EAD37070BDC4F1200500FA05F286
:1076F8004EEA020E20FA04F301FA05F243EA020305
:1077080021FA04F001F0004121FA04F220EA020013
:1077180000EBD3705EEA430E08BF20EAD37070BD59
:1077280094F0000F0FD101F00046400041EB010139
:1077380011F4801F08BF013CF7D041EA060195F01B
:10774800000F18BF704703F00046520043EB0303D5
:1077580013F4801F08BF013DF7D043EA06037047C2
:1077680094EA0C0F0CEA135518BF95EA0C0F0CD0CD
:1077780050EA410618BF52EA4306D1D181EA030113
:1077880001F000414FF0000070BD50EA410606BF0D
:107798001046194652EA430619D094EA0C0F02D152
:1077A80050EA013613D195EA0C0F05D152EA033697
:1077B8001CBF104619460AD181EA030101F00041B5
:1077C80041F0FE4141F470014FF0000070BD41F0FE
:1077D800FE4141F4780170BD70B54FF0FF0C4CF4D8
:1077E800E06C1CEA11541DBF1CEA135594EA0C0FF7
:1077F80095EA0C0F00F0A7F8A4EB050481EA030E44
:1078080052EA03354FEA013100F088804FEA03332A
:107818004FF0805545EA131343EA12634FEA0222F8
:1078280045EA111545EA10654FEA00260EF00041B9
:107838009D4208BF964244F1FD0404F5407402D20B
:107848005B084FEA3202B61A65EB03055B084FEA9C
:1078580032024FF480104FF4002CB6EB020E75EB99
:10786800030E22BFB61A754640EA0C005B084FEAC1
:107878003202B6EB020E75EB030E22BFB61A75463E
:1078880040EA5C005B084FEA3202B6EB020E75EB89
:10789800030E22BFB61A754640EA9C005B084FEA01
:1078A8003202B6EB020E75EB030E22BFB61A75460E
:1078B80040EADC0055EA060E18D04FEA051545EAFD
:1078C80016754FEA06164FEAC30343EA52734FEAA6
:1078D800C2025FEA1C1CC0D111F4801F0BD141EA1F
:1078E80000014FF000004FF0004CB6E711F4801F84
:1078F80004BF01430020B4F1FD0C88BFBCF5E06F64
:107908003FF6AFAEB5EB030C04BFB6EB020C5FEA73
:10791800500C50F1000041EB045170BD0EF0004EC8
:107928004EEA113114EB5C04C2BFD4EB0C0541EAFA
:10793800045170BD41F480114FF0000E013C90E6F7
:1079480045EA060E8DE60CEA135594EA0C0F08BFBB
:1079580095EA0C0F3FF43BAF94EA0C0F0AD150EABA
:1079680001347FF434AF95EA0C0F7FF425AF10464D
:1079780019462CE795EA0C0F06D152EA03353FF475
:10798800FDAE1046194622E750EA410618BF52EAF2
:1079980043067FF4C5AE50EA41047FF40DAF52EAC6
:1079A80043057FF4EBAE12E74FF0FF3C06E000BF63
:1079B8004FF0010C02E000BF4FF0010C4DF804CD70
:1079C8004FEA410C7FEA6C5C4FEA430C18BF7FEA30
:1079D8006C5C1BD001B050EA410C0CBF52EA430C5E
:1079E80091EA030F02BF90EA020F0020704710F1DE
:1079F800000F91EA030F58BF994208BF90422CBF6D
:107A0800D8176FEAE37040F0010070474FEA410C65
:107A18007FEA6C5C02D150EA013C07D14FEA430C83
:107A28007FEA6C5CD6D152EA033CD3D05DF8040BF4
:107A3800704700BF8446104662468C461946634626
:107A480000E000BF01B5FFF7B7FF002848BF10F1FD
:107A5800000F01BD4DF808EDFFF7F4FF0CBF012042
:107A680000205DF808FB00BF4DF808EDFFF7EAFFBE
:107A780034BF012000205DF808FB00BF4DF808ED79
:107A8800FFF7E0FF94BF012000205DF808FB00BF6E
:107A98004DF808EDFFF7CEFF94BF012000205DF8F8
:107AA80008FB00BF4DF808EDFFF7C4FF34BF012005
:107AB80000205DF808FB00BF4FEA410212F50012F2
:107AC80015D211D56FF47873B3EB625212D94FEA1D
:107AD800C12343F0004343EA505311F0004F23FA07
:107AE80002F018BF404270474FF00000704750EA5C
:107AF800013005D111F0004008BF6FF00040704719
:107B08004FF00000704700BF10B5054C13462CB16C
:107B18000A4601460220AFF3008010BD204610BD82
:107B28000000000010B5431E0A44914204D011F829
:107B3800014B03F8014FF8E710BD02440346934296
:107B480002D003F8011BFAE77047000038B5124B62
:107B58001C68A36B0546D3B91820FEF79DFB43F2BA
:107B68000E33A06303804AF6CD33438041F23423B9
:107B780083804EF26D63C3804DF6EC630381052369
:107B880043810B23838101220023C0E90423A36BD3
:107B980000221D615A6138BD8CE20320034613F8A8
:107BA800012B002AFBD1181A013870471D400D001F
:107BB80059400D0085400D0089400D00000000006F
:107BC80000000000050001000000020D0602F4009C
:107BD800040005040601F40007000A0C0A00F50079
:107BE800160009100A01F3002800100D1001F40016
:107BF80042000B0D0C01F400540002040401F400CF
:107C0800550004110601F4005E0004110601F40099
:107C1800670005050701F4006B0006080B03F9006F
:107C28007100020405020000720004010601FC0054
:107C380073000201050100007400050D0500F40041
:107C48007D00080D0A01F4008A00040D0A03F400FF
:107C58009100090D0A01F400A000080D0A01F400C2
:107C6800AD00070D0A02F400B900090D0A01F4007D
:107C7800C800090D0A01F400D700080D0A00F40035
:107C8800E400090D0A01F400F300080D0A01F400EC
:107C98000001020A0501F7000301030C0501F800C1
:107CA800080109090B01F800130109040B01FB0085
:107CB800180109090B01F8002301090D0A01F40054
:107CC800320111101201F40054010C0D0C00F400E3
:107CD80068010B0D0C01F4007A010B0D0D01F40085
:107CE8008C010B0D0D01F4009E01090D0B01F40030
:107CF800AD01080D0B01F400BA010C0D0E01F400E2
:107D0800CE010B0D0D01F400E001020D0502F40097
:107D1800E401070D0A01F400F0010B0D0C01F40059
:107D28000202080D0A01F4000F020D0D0F01F40004
:107D380025020B0D0D01F40037020D0D0E01F400A4
:107D48004D020A0D0C01F4005E020D0E0E01F40046
:107D580075020C0D0D01F40089020A0D0C01F400E6
:107D68009A02090D0B01F400A9020B0D0D01F40094
:107D7800BB020B0D0C00F400CD02110D1100F40034
:107D8800E9020C0D0C00F400FD020C0D0C00F400CF
:107D980011030A0D0B01F400220303110501F4007D
:107DA8002903050D0500F400320303110500F40052
:107DB800390307070801F40040030A010A00030019
:107DC800420304030500F4004403090A0A01F7000A
:107DD8005003090D0A01F4005F03080A0901F700BE
:107DE8006903080D0A01F4007603080A0A01F7007E
:107DF8008003040D0501F4008703080E0A01F7004B
:107E08009503080D0A01F400A203020D0401F40011
:107E1800A60304110400F400AF03090D0901F400DE
:107E2800BE03020D0401F400C2030D0A0F01F7009E
:107E3800D303080A0A01F700DD03080A0A01F7005C
:107E4800E703090D0A01F700F603080D0A01F70018
:107E58000304050A0601F7000A04080A0901F700E5
:107E68001404040C0501F5001A04080A0A01F700B5
:107E78002404090A0900F70030040D0A0D00F70070
:107E88004104080A0900F7004B04090E0900F7002D
:107E98005B04070A0901F700640404110601F400F1
:107EA8006D0402110402F400720404110601F400C6
:107EB8007B0407030901F900FFFFFFFFFFFFE9202B
:107EC8003FFCE3F1F8FC7E3F1F8E82410001C38036
:107ED8003870060E00C1803870070E0FFFF9FFFFDB
:107EE8003FFFE0E1C01C3803870070E00C183FFF3B
:107EF800F7FFFEFFFFC1C3803060060C01C3803866
:107F080070070E00C18003000FC03FF03FF87B3CB4
:107F1800F31CE30EE30EE30EE300E300F3007B0043
:107F28007F801FF007FC037E030F0307E307E307C7
:107F3800E307E30F733E7FFC3FF80FE00300030005
:107F4800030000000C007800E00FF00600FFC0708E
:107F5800070E07007038380300C38018061C00E0BD
:107F680071C003878C001FF8E0007F860001F8705D
:107F780000000303C000387F800187FE001C3870B2
:107F880000C381C00E180600E0C0300707038070E8
:107F98001C380380FFC03803FC0180078001F00013
:107FA8007F800FFC01E1E01C0E01C0E01C0E01E126
:107FB800E00E3C00778007F0007C000FE003CF1C48
:107FC8007879C703DCE01F8E00F8E00F0E0070F030
:107FD8000F87C3FC7FFDC3FF0E0FC0F0FFFFFA4001
:107FE80006060C0C1818383070707060E0E0E0E09D
:107FF800E0E0E0E0E060707070303818180C0C06B3
:1080080003C060303038181C0C0E0E0E0607070728
:10801800070707070707060E0E0E0C1C1838303026
:1080280060C00C0300C3B7FFC781E0EC7388400150
:108038008001800180018001800180FFFFFFFFFF38
:10804800FF0180018001800180018001800180FFA3
:10805800F6DAC0FFFFFFFFF000C03018060180C04D
:10806800300C06018060300C0300C0601806030065
:10807800C03018060180C0300007E00FF81FFC3C34
:108088003C781E700E700EE007E007E007E007E09E
:1080980007E007E007E007E007E007E00F700E7071
:1080A8000E781E3C3C1FF81FF007E00303070F3F44
:1080B800FFFF070707070707070707070707070758
:1080C8000707070707E01FF83FFC7C3E700FF00F1B
:1080D800E007E00700070007000F001E003C00F85B
:1080E80003F007C01F003C00380070006000E0008B
:1080F800FFFFFFFFFFFF07F007FE07FF8783C3802F
:10810800F38039C01CE00E0007000F007F003F001D
:108118001FE00078001E00070003F001F800FE00D1
:10812800770073E0F8FFF83FF807F00000380038F0
:10813800007800F800F801F803B8033807380E385B
:108148001C381838383870386038E038FFFFFFFFBF
:10815800FFFF0038003800380038003800381FFFAB
:108168000FFF8FFFC700038001C000E000700039D7
:10817800F03FFE1FFF8F83E700F0003C000E000772
:1081880000038001C000FC00EF0073C0F0FFF83F5F
:10819800F807E00003E00FF81FFC3C1E380E700ED5
:1081A80070006000E000E3E0EFF8FFFCFC3EF00E3A
:1081B800F00FE007E007E0076007700F700E3C3E25
:1081C8003FFC1FF807E0FFFFFFFFFFFF0006000E60
:1081D800001C001800380070006000E000C001C0FA
:1081E8000180038003800700070007000E000E00CF
:1081F8000E000C001C001C0007F00FFE0FFF878309
:10820800C780F38039C01CE00E780F1E0F07FF01EE
:10821800FF03FFE3E0F9C01DC00FE003F001F80021
:10822800FC00F70073E0F8FFF83FF807F00007E0FC
:108238001FF83FFC7C3C700EF00EE006E007E007FC
:10824800E007E00F700F783F3FFF1FF707C70007F1
:108258000006000E700E701C783C3FF81FF007C037
:10826800FFF000000007FF80FFF000000007FFB6E6
:10827800D600008003C007E00FC03F807E00FC01ED
:10828800F000E0007C001FC001F8003F8007F0000C
:108298007E000F000180FFFFFFFFFFFFE0000000EE
:1082A800000003FFFFFFFFFFFF80800070003E001B
:1082B8000FE000FC001FC003F8003F0007800FC05C
:1082C8001F807F00FC01F803F001C0008000000F50
:1082D800C07FE1FFE3C3EF01FC01F803F007000EE4
:1082E800003800F007C01F007C00E003C007000E44
:1082F800001C00000000000001C0038007000E0001
:108308000007F800003FFF0000FFFFC001F80FE082
:1083180003E001F0078000F80F00003C1E00001E7B
:108328003C03E01E380FF38E781E3F0F70381F078E
:1083380070780F07E0700E07E0700E07E0E00E0798
:10834800E0E01C07E0E01C0EE0E01C0EE0E0381C5A
:10835800F070783C7078FC78783FDFF0381F0FC0F9
:108368003C0000001F0000000F80000007F00E0016
:1083780001FFFE00007FFE00001FF00000F8000370
:10838800E0000FC0007F0001DC000778003CE0003F
:10839800E380038F001E1C00707001C1E00E038093
:1083A800380E00E03C07FFF01FFFE0FFFF83C00E20
:1083B8000E003C7800F1E001C70007BC001EF00089
:1083C8003B8000F0FFFC1FFFE3FFFE7003CE003D83
:1083D800C003B80077000EE001DC0073801E7FFF49
:1083E8008FFFF1FFFF3800F7000EE000FC001F8050
:1083F80003F0007E000FC003F800F7FFFCFFFF1F2B
:10840800FF8000FF000FFF00FFFE07E07C3E0078C2
:10841800F000E78003DC000770000380000E000016
:10842800380000E0000380000E0000380000E00083
:108438001DC000770003DE000E3C0078F803C1F889
:108448001F03FFF803FFC003F800FFF80FFFE0FF6A
:10845800FF0E00F8E003CE001CE000EE000EE00086
:10846800FE0007E0007E0007E0007E0007E0007ED7
:108478000007E0007E000FE000EE000EE001EE00D5
:108488003CE00F8FFFF0FFFE0FFF80FFFFBFFFEF05
:10849800FFFB8000E00038000E00038000E0003899
:1084A800000E0003FFFEFFFFBFFFEE00038000E0A9
:1084B8000038000E00038000E00038000E0003FFC3
:1084C800FFFFFFFFFFF0FFFFFFFFFFFFFC000E00B5
:1084D8000700038001C000E000700038001FFFCFD4
:1084E800FFE7FFF38001C000E000700038001C00C7
:1084F8000E000700038001C000E000700000007F4C
:108508008003FFE007FFF80F80FC1E003E3C000ED2
:1085180078000F700007700000E00000E00000E045
:108528000000E003FFE003FFE003FFE00007F000C6
:108538000770000770000F78000F3C001F1E003FF7
:108548000FC0F707FFE703FFC300FF03E000FC00CD
:108558001F8003F0007E000FC001F8003F0007E015
:1085680000FC001F8003FFFFFFFFFFFFFFF8003F35
:108578000007E000FC001F8003F0007E000FC00130
:10858800F8003F0007E000FC001CFFFFFFFFFFFFB3
:10859800FFFFFFFC001C007001C007001C007001F9
:1085A800C007001C007001C007001C007001C00754
:1085B800001F807E01F807E01FC0F7879FFE3FF08D
:1085C8003F00E001EE003CE0078E00F0E01E0E03E5
:1085D800E0E07C0E0F80E1F00E1E00E3C00E7C0090
:1085E800EFE00FCE00F8F00F0780E03C0E03C0E08C
:1085F8001E0E00F0E00F0E0078E003CE003CE00114
:10860800EE000FE001C0038007000E001C003800D8
:108618007000E001C0038007000E001C00380070E5
:1086280000E001C0038007000E001C0038007FFF37
:10863800FFFFFFFCF8001FF8001FF8001FFC003FB9
:10864800FC003FFC003FEE0077EE0077EE0077E796
:1086580000E7E700E7E700E7E381C7E381C7E381D5
:10866800C7E1C387E1C387E1C387E0E707E0E7071E
:10867800E0E707E07E07E07E07E07E07E03C07E0F2
:108688003C07F0007F0007F8007FC007FC007FE090
:1086980007EF007E7007E7807E3C07E1C07E1E077B
:1086A800E0E07E0F07E0787E0387E03C7E01E7E0AC
:1086B8000E7E00F7E007FE003FE003FE001FE0012A
:1086C800FE000F007F0001FFF001FFFC01F01F0119
:1086D800E003C1E000F1E0003CE0000E700007702C
:1086E8000003F80000FC00007E00003F00001F802F
:1086F800000FC00007E00003B800039C0001CF0092
:1087080001E3C001E0F001E03E03E00FFFE003FFFA
:10871800E0003F8000FFFC3FFF8FFFF3803EE00357
:10872800F8007E001F8007E001F8007E003F801EF1
:10873800FFFF3FFF8FFFC38000E00038000E0003FB
:108748008000E00038000E00038000E000380000E0
:10875800007F0001FFF001FFFC01F01F01E003C1F1
:10876800E000F1E0003CE0000E700007700001F846
:108778000000FC00007E00003F00001F80000FC0CA
:108788000007E00007B800039C0001CF0039E3C0F0
:108798001FE0F007E03E03F00FFFFC03FFEE003F91
:1087A80083800000C0000020FFFE0FFFF8FFFFCE0F
:1087B800003CE001EE000EE000EE000EE000EE00EE
:1087C8000EE001CE003CFFFF8FFFF0FFFF8E003C64
:1087D800E001EE000EE000EE000EE000EE000EE01C
:1087E80000EE000EE000FE000F03FC00FFF01FFF8C
:1087F80083E07C3801E7000E7000E7000070000796
:1088080080003E0001FE000FFE003FF8003FE00040
:108818003E0000F00007E0007E0007F00077800EC1
:108828007C03E3FFFC1FFF803FC0FFFFFFFFFFFF4C
:10883800FF8070000E0001C0003800070000E00053
:108848001C0003800070000E0001C0003800070003
:1088580000E0001C0003800070000E0001C000381A
:1088680000070000E0001C00E000FC001F8003F08F
:10887800007E000FC001F8003F0007E000FC001F69
:108888008003F0007E000FC001F8003F0007E00001
:10889800FC001F8003F0007F001EF0079F01F1FF1E
:1088A800FC1FFE007F00E0007F8003FC001CE0014D
:1088B800E7800F3C0070E00787803C1C01C0E00E99
:1088C8000780E01C0700E0380783801C1C00E0E0FC
:1088D800078E001C7000E38007B8001DC000EE0082
:1088E80007E0001F0000F8000380007003C00F704D
:1088F80003C00F7803E00F7803E00E3807E00E3866
:1089080007F01E3C07701E3C07701C1C0E701C1CD8
:108918000E383C1C0E383C1E1E38380E1C38380EDB
:108928001C1C380E1C1C780F3C1C7007380E700776
:10893800380E7007380E7007700EE003F007E0037A
:10894800F007E003F007E003E003C001E003C00123
:10895800E003C0F0007BC0078F00387803C1E03C1B
:108968000781C03C1E00F1E0038E001EF0007F006E
:1089780001F0000F80007C0007F0003B8003DE0060
:108988003C7801C1C01E0F01E03C0E00E0F0078FEB
:10899800001E7000F78003C0F0003CF00078F00182
:1089A800E1E00381E00F01C01C03C07803C1E007C8
:1089B8008380078F00071C000F78000EE0000F80EF
:1089C800001F00001C0000380000700000E00001DB
:1089D800C0000380000700000E00001C00003800E3
:1089E8000070007FFFEFFFFDFFFF8000F0003C00FC
:1089F8000F8001E00078001E00078000F0003C00B6
:108A08000F0003C00078001E00078001E0007C0012
:108A18000F0003C000F0003E0007FFFFFFFFFFFF4D
:108A2800FCFFFFF8E38E38E38E38E38E38E38E38A8
:108A3800E38E38E38E38E38FFFFCC0300601806098
:108A48000C0300C018060180200C03004018060122
:108A580080300C030060180600C030FFFFC71C718F
:108A6800C71C71C71C71C71C71C71C71C71C71C793
:108A78001C7FFFFC07007803C03F01D80CE0E30629
:108A88001C70E383181DC06C0380FFFFFFFFFFC04D
:108A9800F0F0E0E0E007F00FFC0FFF0F03C700E085
:108AA80000700038001C00FE0FFF1FF39F01CF006D
:108AB800E700738079E0FC7FEF9FE3C7E1E0E00027
:108AC800E000E000E000E000E000E000E3E0EFF8B4
:108AD800FFFCFC3EF81EF00EE00FE007E007E007A1
:108AE800E007E007E007F00EF81EFC3CEFFCEFF8AB
:108AF800E3E007F01FF83FFC3C1E780E7007E0002B
:108B0800E000E000E000E000E000E0077007780E19
:108B18007C1E3FFC1FF807E000038001C000E00056
:108B2800700038001C000E0FC71FFB9FFFDF07EF08
:108B380001F7007F803F800FC007E003F001F800D5
:108B4800FC0077007BC07DF07E7FFB1FF983F0C0BF
:108B580007E01FF83FFC7C1E700E6006E007FFFF71
:108B6800FFFFFFFFE000E000E0007007780E3C1E0A
:108B78003FFC1FF807E00E3CF9C3870E7FFFFCE1BE
:108B8800C3870E1C3870E1C3870E1C387007C71FD7
:108B9800F73FFF3C3F780F700FE007E007E007E082
:108BA80007E007E007E007700F780F7C3F3FF71FEB
:108BB800E707C700070007000E700E781E3FFC1F6E
:108BC800F807E0E001C0038007000E001C00380031
:108BD80071F8E7FDDFFBF0FFC0FF00FC01F803F0D0
:108BE80007E00FC01F803F007E00FC01F803F0077C
:108BF800E00FC01CFFF007FFFFFFFFFFFFFC1C7129
:108C0800C70000071C71C71C71C71C71C71C71C73E
:108C18001C71C71C73FFFBC0E000E000E000E0002F
:108C2800E000E000E000E03CE078E0F0E1E0E3C0F4
:108C3800E780EF00EF80FF80FBC0F1E0E0E0E0F0CC
:108C4800E070E078E03CE01CE01EE00EFFFFFFFF74
:108C5800FFFFFFFFFFFCE3E0F8E7F1FEEFFBFEF8A4
:108C68007F0FF03E07F01C07E01C07E01C07E01C24
:108C780007E01C07E01C07E01C07E01C07E01C07D6
:108C8800E01C07E01C07E01C07E01C07E01C07E3EA
:108C9800F1CFFBBFF7E1FF81FE01F803F007E00F1A
:108CA800C01F803F007E00FC01F803F007E00FC002
:108CB8001F803807F00FFE0FFF8783C780F3803BC4
:108CC800801FC007E003F001F800FC007E003B8035
:108CD80039E03C783C3FFE0FFE01FC00E3E0E7F89A
:108CE800EFFCFC3EF81EF00EE00FE007E007E0079F
:108CF800E007E007E007F00EF81EFC3EFFFCEFF887
:108D0800E3E0E000E000E000E000E000E00007E170
:108D18008FFCCFFF6783F780FB803FC01FC007E051
:108D280003F001F800FC007E003B803DE03EF83F88
:108D38003FFF8FFDC1F8E000700038001C000E00F6
:108D480007000380E3F7FBFF8F078381C0E07038DB
:108D58001C0E070381C0E07038000FC0FF87FF3C7E
:108D68001EE03B800E003C007F00FF80FF807F00FC
:108D78003F807E01FC1F7FF8FFC1FC003870E1CF07
:108D8800FFFF9C3870E1C3870E1C3870E1C3E7C74A
:108D980080E00FC01F803F007E00FC01F803F00751
:108DA800E00FC01F803F007E00FC03FC0FFC3F7FEC
:108DB800EEFF9C7E387003B8039C01C700E380E196
:108DC800C070703838381C1C070E038E01C7007736
:108DD800003B801DC007C003E001F0007000F01CDC
:108DE80003B81F03DC0F81CE07C0E783E071C3B867
:108DF80070E1DC3870EE1C1C630E0E71CE0738E78C
:108E0800039C7380EC19807E0FC03F07E00F83F04E
:108E18000780F003C07801E03C007007380E3C1C66
:108E28001C1C0E380F70077003E003C001C003E07C
:108E380007E007700E781E381C1C381E780E700765
:108E4800700738039C01C701C380E1C07070703897
:108E5800381C3C071C038E01CE0077003B801F8026
:108E680007C003E001E0007000380038001C001E55
:108E7800000E003F001F000F00007FFCFFF9FFF00D
:108E880000E003800E003C00F003C00F001C0070DF
:108E980001E007801E007800FFFFFFFFFFF8070FC3
:108EA8001F1C1C1C1C1C1C1C1C1C1C1C38F8E0F85F
:108EB800381C1C1C1C1C1C1C1C1C1C1C1F0F07FF0A
:108EC800FFFFFFFFFFFFFFC0E0F0F8383838383801
:108ED8003838383838381C1F071F1C3838383838A5
:108EE800383838383838F8F0E03800FC03FC1F3ED2
:108EF8003C1FE01F801E00FFFFF8C0DEF720098638
:108F08004191FF1304C320C8FF89826190101F1488
:108F1800DA3D1E8340781708F47A3533F04020385C
:108F280010EC20C620C640C6406C803900013C02C7
:108F380077026304630477083C0E0660CC1981E06D
:108F4800180F0336C2D8730631E3C4FE13266CCC5F
:108F5800CCC46623108C4663333332664C80257E3E
:108F6800A50030C33F30C30CD6F0C008442110849C
:108F7800421108003C6642C3C3C3C3C3C3C34266AD
:108F88003C113F33333333303E31B07830181C1C3A
:108F98001C1818100807F83C66C3C303061C07030F
:108FA800C3C3663C0C187162C9A346FE183060C082
:108FB8007F2010080807F38C030180F06C63E01E23
:108FC8003198780C06F38D83C1E0D06C63E0FF0321
:108FD8000206040C081818181030303E31B0783CDE
:108FE8001B18F8C6C1E0F06C63E03C66C2C3C3C39B
:108FF800673B0303C2663CC00030C0000064A000A9
:1090080081C78E0C0780700E0180FF80001FF00062
:10901800700E01C0183871C080003E31B078301829
:10902800183818180C0000018003F0060E06018697
:1090380000661DBB31CF18C79863CC31E611B399D0
:10904800CCF7860001800070400FE00600F00F00AA
:109058009019819810830C3FC204606606C030FFE7
:10906800183303606C0D833FC606C0780F01E06FAC
:10907800F81F861981A03C0180300600C0680D8366
:109088001861F0FF183303603C0780F01E03C078B6
:109098000F0360CFF0FFE030180C0603FD80C060BE
:1090A80030180FF8FFC0C0C0C0C0FEC0C0C0C0C0EC
:1090B800C00F830E606603C00C00C1FC03C03603FA
:1090C80060730F0F10C0780F01E03C0780FFFE03AC
:1090D800C0780F01E03C06FFFFFFC0060C183060A7
:1090E800C183078F1E2780C0D8330C630CC1B83FDB
:1090F8000730C3186306606C0CC0C0C0C0C0C0C0D5
:10910800C0C0C0C0C0FFE03F01FC1FE0FD05EC6F20
:10911800637913CD9E6CF1478E3C7180E07C0FC162
:10912800E83D8798F11E33C3786F07E07C0E0F8106
:1091380083180CC06C01E00F007803C01B01980C69
:1091480060C0F800FF306C0F03C0F06FF300C03050
:109158000C0300C0000F8183180CC06C01E00F00E5
:109168007803C01B01986C60C0FB0008FF8C0EC020
:109178006C06C06C0CFF8C0EC06C06C06C06C07010
:109188003F186C0F03C01E01F00E00F03C0D863F27
:1091980000FF86030180C06030180C06030180C000
:1091A800C0780F01E03C0780F01E03C0780F01B0C3
:1091B80061F0C06C0D8110630C610460CC19016012
:1091C8003C070060C18130E19870CC2866262113E5
:1091D80030C8986C4C14340A1A070703038081803E
:1091E80060630C30C1980F00E00600F01901983058
:1091F800C60E6060C0360630C30C1981D80F0060F7
:109208000600600600600600FFC060300C0603011F
:10921800C0603018060300FFC0FB6DB6DB6DB6E01A
:10922800841084108410841080EDB6DB6DB6DBE00A
:109238003060A244D8A180FFC0C6307E71B0C06043
:10924800F3DB0D86C73DC0C060301BCE360F0783E9
:10925800C1E0F07C6DE03C66C3C0C0C0C0C3663CE2
:109268000303033B67C3C3C3C3C3C3673B3C66C3B2
:10927800C3FFC0C0C3663C366F66666666603B6700
:10928800C3C3C3C3C3C3673B0303C67CC0C0C0DE3C
:10929800E3C3C3C3C3C3C3C3C3C3FFFFC0300333E4
:1092A8003333333333E0C06030184C466361F0EC3D
:1092B8006231986C30FFFFFFC0DEF71CF0C7863CB8
:1092C80031E18F0C7863C31E18C0DEE3C3C3C3C388
:1092D800C3C3C3C33C66C3C3C3C3C3C3663CDE7155
:1092E800B0783C1E0F0783E36F30180C003B67C350
:1092F800C3C3C3C3C3673B030303DF318C6318C60F
:10930800003EE3C0C0E03C07C3E37E66F6666666DF
:1093180067C3C3C3C3C3C3C3C3C77BC1A098CC427D
:1093280021B0D0281C0C00C61E3891C4CA66D316BA
:10933800D0A6871C38C0C6004362361C181C3C26C1
:109348006243C12198CC4261B0D0381C0C0603019D
:109358000300FE0C30C1861820C1FC3666666ECE4E
:1093680066666630FFFFFFFFC0C6666667376666DB
:1093780066C0612438000000FF8E0D00C87B0D0018
:10938800207E1600636F6D707574654F533A2074B4
:10939800656D7065726174757265203D2025662C57
:1093A8002074617267657454656D703A2025660093
:1093B80064656275673A20636F6D707574696E676E
:1093C800204F7065726174696E67537461746520AB
:1093D800746F204F66660064656275673A20636F34
:1093E8006D707574696E67204F7065726174696E0F
:1093F80067537461746520746F204F6E00646562F2
:1094080075673A206C656176696E672074686520B7
:109418006F7065726174696E67207374617465201A
:1094280074686520776179206974206973000A532C
:10943800657475702E2E2E0074656D70657261747A
:109448007572650068756D69646974790043616C4B
:109458006C696E6734486561740046657374657736
:109468006F726B73004865617420746F0025322E2B
:109478003066002E25640025250000000000090044
:1094880001000000031A0C04E7000A0009090C0196
:10949800E800150013181300E9004E00101E13020F
:1094A800E6008A001D191F01E800E50014191702DB
:1094B800E800240103090702E800280108210C0339
:1094C800E700490108210C01E7006A010A0A0E02B7
:1094D800E700770110101402F100970103090A034D
:1094E800FD009B0108030C02F6009E01030409031A
:1094F800FD00A0010A1A0A00E700C10110191302B1
:10950800E800F30108191304E8000C02101913020B
:10951800E8003E0211191301E80074021019130142
:10952800E800A60211191301E800DC021019130261
:10953800E8000E0310191302E80040031119130183
:10954800E800760310191301E800A80303130903C0
:10955800EE00B00303180903EE00B9031111140259
:10956800F000DE0311091402F400F20311111402D1
:10957800F00017040F1A1303E7004804201F240102
:10958800E700C404161A1701E7000C05131A17039D
:10959800E7004A05161A1901E7009205141A18037C
:1095A800E700D305121A1603E7000E06111A150371
:1095B800E7004606181A1B01E7009406131A190358
:1095C800E700D206031A0A04E700DC060E1A1201A5
:1095D800E7000A07141A1803E7004B070F1A1403C9
:1095E800E7007C07181A1E03E700CA07141A1A03B3
:1095F800E7000B08191A1B01E7005D08121A170388
:10960800E7009808191C1B01E700F008141A190351
:10961800E7003109141A1701E7007209131A160135
:10962800E700B009131A1903E700EE09151A170124
:10963800E700330A201A2100E7009B0A151A1701D0
:10964800E700E00A171A1800E7002B0B131A160197
:10965800E700690B06210A02E700820B0A1A0A00D2
:10966800E700A30B06210A01E700BC0B0D0D100251
:10967800E800D20B150213FF0500D80B07050901F6
:10968800E700DD0B11131301EE00060C101A14028B
:10969800E7003A0C10131201EE00600C111A1401C5
:1096A800E700980C10131301EE00BE0C071A0A010C
:1096B800E700D50C101B1301EE000B0D0F1A130257
:1096C800E7003C0D031A0802E700460D06220900D0
:1096D800E700600D101A1202E700940D031A070242
:1096E800E7009E0D18131C02EE00D70D0F1313028E
:1096F800EE00FB0D11131301EE00240E10191402D5
:10970800EE00560E11191401EE008C0E09130C020E
:10971800EE00A20E0E131102EE00C40E07170A0186
:10972800EA00D90E0F131302EE00FD0E11131100FB
:10973800EE00260F19131900EE00620F1013110026
:10974800EE00880F111B1100EE00C20F0F1311015C
:10975800EE00E60F08210C01E700071002210903BB
:10976800E700101008210C03E70031100F07120161
:10977800F100000088970D00489F0D00207E1D0015
:10978800FFFFFFF0F0CF3CF38A20063031031818B2
:10979800C7FFBFFC31031818C7FFBFFC31011818F9
:1097A800C0C606300403E1FF726C4788F107207ECB
:1097B80003F017023C4788F11B267FC3E010020024
:1097C800000603C0407E0C0E7080C3180C3100E701
:1097D8003007E6003C40000C7C008FE019C70118F8
:1097E800303183021C7040FE0407C00F007E039CCA
:1097F8000C3030C0E701F803803E01CC6E19B07C14
:10980800C0F303CE1F9FE61E1CFFA0088C6631988C
:10981800C6318C63086308610C208218C318C3180A
:10982800C6318C623188C4620010235BE38D9100DD
:109838000C0300C030FFFFF0C0300C0300C0F5601F
:10984800FFF0F0020C1020C1020C1020C1020C1015
:1098580020C1001F07F1C7306E0F80F01E03C078CB
:109868000F01E03C0EC19C71FC1F0008CFFF8C6308
:1098780018C6318C63181F0FF987607C0600C01862
:109888000701C0F0781C0600803007FFFFE03F0F9B
:10989800F387606C0C0180707C0F801801803C0796
:1098A80080D873FC1F000180700E03C0D81B0661AE
:1098B8008C218C33067FFFFE0300600C01803FCFB4
:1098C800F980300600DE1FE70E00E00C018030074B
:1098D80081F873FC1F000F07F9C33074018033C788
:1098E800FEF0DC1F01E03C06C1DC71FC1F00FFFF3D
:1098F800FC010060180200C03006018030040180BD
:109908003006018030001F07F1C730660CC18C613A
:10991800FC3F8E3B01E03C0780D831FC1F001F074D
:10992800F1C7706C0780F01E0761EFFC7980300585
:10993800819873FC1E00F00003C0F0000F56000071
:109948000701E0F83C0F00E007C00F003C00F00101
:10995800FFFFFF000000FFFFFF000E007801F00787
:10996800C00F00701E0F03C0F008001F1FEE1B037E
:10997800C0C0300C060381C0E0300C030000000CAE
:10998800030000FE000FFE00F03E07003C380030E8
:10999800C1E0660FD9D861C3C3070F1C1C3C6060C7
:1099A800F18183C6061B1838EE71E718FDF871E7D8
:1099B800C0E00001E00001FFC001FC0003C003C0DB
:1099C80003C007E0066006600E700C300C301C38CF
:1099D80018181FF83FFC301C300C700E600660062B
:1099E800FFC7FF3019806C03601B00D80CFFC7FF4E
:1099F800300D803C01E00F007806FFF7FE0007E01D
:109A08003FF0E0738066006C0030006000C00180A9
:109A18000300060006006C00DC031E0E1FF80FC0D2
:109A2800FF83FF8C07300EC01B007C00F003C00FC3
:109A3800003C00F003C01F006C03B01CFFE3FF00F4
:109A4800FFFFFFC00C00C00C00C00C00FFEFFEC001
:109A58000C00C00C00C00C00FFFFFFFFFFFF006000
:109A68000C0180300600FFDFFB00600C018030062F
:109A780000C0180007F01FFC3C1E70066003E000E1
:109A8800C000C000C07FC07FC003C0036003600780
:109A9800300F3C1F1FFB07E1C01E00F007803C0190
:109AA800E00F007803FFFFFFF007803C01E00F00A4
:109AB8007803C01E00C0FFFFFFFFF00180C06030C8
:109AC800180C06030180C0603C1E0F07C77F1F00EB
