:02000002D0002C
:1040000000400D00CC640D00000005000C0005010F
:0840100004014601000000005C
:1040180000610D0009480A49884208B505D0094AD7
:10402800824202D0121A02F04BF80748074A0021D0
:10403800121A02F050F8014808BD00BF80E30320BF
:1040480070640D00B4E30320B8E30320F8E703200D
:1040580070B501F065F9074C074BE41AA408002570
:104068001E46A54204D056F8253098470135F8E792
:1040780070BD00BF70640D0034640D0000F05EB8C0
:1040880008B500F0BFF8BDE8084001F017B900F026
:10409800BFBC00F0BDBC0078B0FA80F040097047A2
:1040A8000123037070470000F8B5144BD3E900678B
:1040B800134BD3E900450022124B3046394601F034
:1040C800A5FB22462B4601F0CFFF98B900220D4BE5
:1040D8003046394601F098FB02460B4620462946F1
:1040E80001F0C2FF40B9084B93F90000431C08BF18
:1040F8000120F8BD0020F8BD0120F8BD88E30320A9
:1041080090E303200000E03FA0E3032010B530B1A6
:10411800012802D0013003D110BD052400E0062497
:10412800A4B20121204601F040F90C2000F078FCEF
:1041380020460021BDE8104001F037B908B501213B
:10414800002001F021F94FF4FA6000F069FC01F059
:1041580033F84FF4165101F023F801F02DF81E49F9
:1041680000F0BBFE002309221C491D4800F0F0FBAB
:10417800002309221B491C4800F0EAFB1B4800F0F9
:10418800DDF8002309221A491A4800F0E1FB002350
:1041980009221949194800F0DBFB00210F2001F022
:1041A800F3F80121052001F0EFF80021052001F0C6
:1041B800FCF80121062001F0E7F80121062001F0B2
:1041C800F4F80C2000F02CFC0021062001F0EDF89A
:1041D8000B4B00221A7008BD14610D0090E30320F8
:1041E8001E610D0098E30320A0610D00BCE30320CD
:1041F800D0E303202A610D00A8E3032033610D00FA
:10420800A0E303202DE9F8433648374F2DED028B04
:1042180000F01EFA334810EE108A00F0E3F90F2080
:1042280010EE109A01F0EDF807EE900AB8EEE78A62
:10423800DFED2E7A88EE277A17EE100A01F044FC9B
:1042480041EC100B01F084FA002251EC100B284BC2
:1042580001F08EFC0022274B01F0D8FA04460D46E7
:1042680000F02AFAD7E9002306462946204601F03D
:10427800E7FE214B08B91E6007E01868801BB0F5FF
:104288007A7F02DD1D4BC3E90045C7E90045FFF70A
:104298000BFFFFF73BFF484601F016FC184BC3E93C
:1042A8000001404601F010FC164BC3E9000118EE6E
:1042B800100A01F009FC144BC7E90045C3E90001E5
:1042C800FFF7F2FE114B93F90030834205D0BDECA5
:1042D800028BBDE8F843FFF719BFBDEC028BBDE8C0
:1042E800F88300BFBCE30320A8E303200000A64234
:1042F8000000E03F0000184080E3032088E303202B
:1043080090E3032098E30320D0E30320A0E30320F5
:1043180010B500F0D9F90623162203210248BDE89A
:10432800104000F003B800BFBCE3032010B50372CF
:1043380001238171C271037410BD000010B5012101
:104348000446052001F020F800F036FF064900F089
:10435800C4FD0021A07901F017F80121A07901F02E
:1043680024F80023E36010BD3C610D002DE9F843FB
:10437800044600F021FF764900F0AFFD00F09CF9FB
:10438800E368834284BF0023E360237C064663B965
:10439800E368C31AB3F5FA6F07D200F00DFF6D4951
:1043A80000F09BFD0120BDE8F8830025257400F08E
:1043B80003FF694900F07EFD00F0FEFE0A22314647
:1043C80000F0B5FD00F0F8FE644900F073FD00F060
:1043D800F3FE0A22E16800F0AAFD00F06DF92571EC
:1043E800E060E570A5706570257000F0E5FE5C4939
:1043F80000F073FD0121A07900F0D7FFFA2000F04A
:104408000FFB0121A07900F0BFFF2946A07900F039
:10441800CCFF142000F004FB00F08EFB0121A079F2
:1044280000F0C3FF282000F03FF92946A07900F0EA
:10443800ABFF2E4601274FF00008A07900F0CEFF11
:10444800B8425FFA88F908D1012008F1010800F0A4
:104458002BF9B8F1FF0FF0D1C146A07900F0BEFFEB
:10446800B9F1FF0FC7B214D0032D0ED9EA070CD447
:10447800F2080136A35C5B00DBB2A354217A4945FC
:104488003CBF43F00103A354F6B20135EDB2552DFC
:10449800D1D100F053FB00F08FFE0A22314600F024
:1044A80055FD00F089FE1022217800F04DFD00F046
:1044B80083FE2C4900F0FEFC00F07EFE102261789D
:1044C80000F042FD00F078FE264900F0F3FC00F011
:1044D80073FE1022A17800F037FD00F06DFE21492F
:1044E80000F0E8FC00F068FE1022E17800F02CFDF6
:1044F80000F062FE1B4900F0DDFC00F05DFE1022BA
:10450800217900F021FD00F057FE174900F0D2FC98
:1045180000F052FE637821781944A3780B44E178BF
:104528001022194400F03EFD272E0DD9637820781B
:104538001844A3781844E37818442379C0B2C31AFE
:1045480058425841BDE8F8830020BDE8F88300BF11
:1045580046610D0056610D005E610D0069610D0038
:1045680075610D0083610D0086610D0010B504466C
:1045780000F022FE184900F0B0FC2046FFF7F6FED6
:1045880030B3E3790B2B04D022D3153B012B06D98A
:104598001EE0A37800EE103AB8EE400A10BDA378EA
:1045A800DFED0E6A03F07F0207EE102AE27807EECD
:1045B800902AB8EEC77AF8EEE77A1B06E7EE267A75
:1045C800B2EE047A87EE870A04D5B1EE400A10BD30
:1045D8009FED030A10BD00BF8B610D0000008043F2
:1045E8000000C07FFFF7C2BF10B5044600F0E4FD2D
:1045F800144900F072FC2046FFF7B8FEF8B1E379E1
:104608000B2B16D01BD3153B012B18D82378DFEDC5
:104618000E6A07EE103A637807EE903AB8EE477ADA
:10462800F8EEE77AE7EE267AB2EE047A87EE870AA2
:1046380010BD237800EE103AB8EE400A10BD9FED89
:10464800030A10BD98610D00000080430000C07F80
:10465800FFF7CABF00F038B808B5024B1B689B6863
:10466800019308BD4802030008B5024B1B681B698B
:10467800019308BD4802030008B5024B1B685B693B
:10468800019308BD4802030008B5024B1B681B6B69
:10469800019308BD4802030008B5024B1B685B6C18
:1046A800019308BD4802030008B5024B1B68DB688C
:1046B800019308BD1802030008B5024B1B685B692B
:1046C800019308BD1802030008B5024B1B681B685C
:1046D800019308BD2C02030008B5024B1B685B68F8
:1046E800019308BD2C02030008B5024B1B689B68A8
:1046F800019308BD2C02030008B5024B1B68DB6858
:10470800019308BD2C02030008B5024B1B681B6906
:10471800019308BD2C02030008B5024B1B685B69B6
:10472800019308BD2C02030008B5024B1B681B6AE5
:10473800019308BD2C02030008B5024B1B685B6A95
:10474800019308BD2C02030008B5024B1B681B6BC4
:10475800019308BD2C02030008B5024B1B681B6AB5
:10476800019308BD2802030008B5024B1B685B6A69
:10477800019308BD2802030008B5024B1B689B6A19
:10478800019308BD2802030008B5024B1B68DB6AC9
:10479800019308BD2802030008B5024B1B681B6B78
:1047A800019308BD2802030008B5024B1B685B6B28
:1047B800019308BD2802030008B5024B1B681B6C57
:1047C800019308BD2802030008B5024B1B685B690A
:1047D800019308BD6402030008B5024B1B689B687F
:1047E800019308BD6802030008B5024B1B68DB682B
:1047F800019308BD6802030008B5024B1B68DB691A
:10480800019308BD3002030008B5024B1B681B6A00
:10481800019308BD3002030008B5024B1B681B68F2
:10482800019308BD3C02030008B5024B1B68DB6816
:10483800019308BD3C02030008B5024B1B681B69C5
:10484800019308BD3C02030008B5024B1B685B6975
:10485800019308BD3C02030008B5024B1B689B6925
:10486800019308BD3C02030008B5024B1B68DB69D5
:10487800019308BD3C02030008B5024B1B681B6A84
:10488800019308BD3C02030008B5024B1B689B6AF4
:10489800019308BD3C02030008B5024B1B681B6866
:1048A800019308BD4C02030008B5024B1B685B6806
:1048B800019308BD4C02030008B5024B1B681B6935
:1048C800019308BD4C02030008B5024B1B685B69E5
:1048D800019308BD4C02030008B5024B1B689B6995
:1048E800019308BD4C02030008B5024B1B68DB6945
:1048F800019308BD4C02030008B5024B1B681B6AF4
:10490800019308BD4C02030008B5024B1B685B68A5
:10491800019308BD2002030008B5024B1B685B69C0
:10492800019308BD2002030008B5034B1B68D3F8A8
:104938008830019308BD00002002030008B5034B2E
:104948001B68D3F89430019308BD000020020300CF
:1049580008B5024B1B681B68019308BD440203009D
:1049680008B5024B1B68DB6B019308BD44020300CA
:1049780008B5024B1B685B68019308BD4002030041
:1049880008B5024B1B689B68019308BD40020300F1
:1049980008B5024B1B68DB68019308BD40020300A1
:1049A80008B5024B1B681B69019308BD4002030050
:1049B80008B5024B1B685B69019308BD4002030000
:1049C80008B5024B1B689B69019308BD40020300B0
:1049D80008B5024B1B68DB69019308BD4002030060
:1049E80008B5024B1B681B6A019308BD400203000F
:1049F80008B5024B1B681B6B019308BD40020300FE
:104A080008B5024B1B685B6B019308BD40020300AD
:104A180008B5024B1B685B68019308BD1C020300C4
:104A28000021FFF779BF10B58368044613B103224C
:104A380001469847204610BD002211464068FFF7FE
:104A4800CFBF002211464068FFF7DABF0022406856
:104A5800FFF7CEBF002281F001014068FFF7B8BF21
:104A680000231A4619464068FFF7AABF00231A46D2
:104A780019464068FFF79CBF002211464068FFF7BF
:104A88008FBF002211464068FFF77ABF002202213B
:104A98004068FFF77DBF00231A464068FFF768BFEC
:104AA800024B03225A60024A1A607047D8E3032077
:104AB800B4610D007047F8B5064615460C468F18C8
:104AC800BC4206D0336814F8011B9B6830469847EF
:104AD800F6E72846F8BD0022007CFFF73DBE00211E
:104AE800007CFFF741BE0021007CFFF745BE002196
:104AF800007CFFF749BE0021007CFFF74DBE10B5D2
:104B08000446FFF7C4FA204610BD000010B504465D
:104B18004FF47A730846A3600021044B2074616047
:104B28002360FFF749FE204610BD00BFE8610D0075
:104B38000021007CFFF738BEFFF7FEBDFFF7F4BD8C
:104B4800704710B50446FFF7A2FA204610BDF0B52D
:104B5800037D062B8DB00E4600F104074FF00004CC
:104B680002D000F1080518E00CAD394605F8304DC3
:104B78002F232A460A20FFF727FE284601F0B3FA1A
:104B880033680246DB682946304698470FE024B16F
:104B98002E21304600F092F9044415F8011D0A222E
:104BA800304600F0D1F9BD420444F0D120460DB0A2
:104BB800F0BD000010B5054B0446112240F8043B37
:104BC800002101F088FA204610BD00BF10620D00D8
:104BD8000346074A10B543F8042B01F1100251F8B7
:104BE800044B43F8044B9142F9D10A781A7010BD6E
:104BF80010620D0010B59DF8084044EA032343EA0B
:104C0800024242EA016104234160037510BD37B5D1
:104C18000D788B784A78C97800912946FFF7EAFF22
:104C280003B030BD014B024A1A607047E0E303202D
:104C3800D1620D00002211464068FFF7D1BE002264
:104C480011464068FFF7DCBE00224068FFF7D0BE7F
:104C5800002281F001014068FFF7BABE00231A461E
:104C680019464068FFF7ACBE00231A46194640684B
:104C7800FFF79EBE002211464068FFF791BE002252
:104C880011464068FFF77CBE002202214068FFF70A
:104C98007FBE00231A464068FFF76ABE10B103685A
:104CA8005B681847704738B504460068D0B1FFF70D
:104CB800D3FCB8B9237C1BB9206808B1FFF7D4FC32
:104CC800656855B1AB681BB1032229462846984749
:104CD8002846FFF7DCF9002363602068FFF7CCFC67
:104CE8000023236038BD000038B50B4B0360044631
:104CF800D0F8CC0108B1FFF7CCF9D4F8C4512DB1E4
:104D08002846FFF7D0FF2846FFF7C1F9A06808B189
:104D1800FFF7C4FF204638BD04630D0038B50D4CBD
:104D28000D4B23600025022304F5E4706360A56041
:104D3800C4F8C451C4F8C851FFF7AEFC074BC4F817
:104D4800CC5123602046064A0649BDE8384000F0A9
:104D5800B1BB00BFE4E3032038630D0004630D001A
:104D6800B8E30320F14C0D0000231A464068FFF712
:104D7800FFBD002202214068FFF70ABE002211464B
:104D88004068FFF7FDBD002211464068FFF708BEE6
:104D980000231A4619464068FFF70ABE00231A4640
:104DA80019464068FFF70CBE002281F001014068F7
:104DB800FFF70EBE00224068FFF71ABE0022114618
:104DC8004068FFF71DBE002211464068FFF708BE85
:104DD80070B58CB014460646FFF7ECFE0CAB00220B
:104DE800114643F8302D2046FFF7FEFC014658BB1C
:104DF800009B4BB35A68022A0ED00A2A24D15C6958
:104E0800112201A801F067F906238DF8143001ADCD
:104E180004F10803183405E0596930460431FFF7F6
:104E2800F6FE11E0186859682A4603C20833A342FF
:104E38001546F7D101A906A807ADFFF7C9FE0FCDA2
:104E4800341D0FC42B6823700098FFF7C5FC30464B
:104E58000CB070BD024B034A1A6000225A607047BA
:104E6800B4E5032038630D00F8B506460D468F18E3
:104E78000024BD420CD0336815F8011B9B683046EE
:104E88009847002801DB0444F3E7002C08BF0446D8
:104E98002046F8BD70B505460C46084649B101F0F4
:104EA80022F92B68024621462846DB68BDE8704097
:104EB800184770BD08B5FFF7EDFF08BD03689B688C
:104EC800184738B50D210546FFF7F8FF0A210446B3
:104ED8002846FFF7F3FF204438BD38B50546FFF7ED
:104EE800D9FF04462846FFF7ECFF204438BD30B50B
:104EF8008BB00B4600218DF82410012A98BF0A2296
:104F08000DF12304B3FBF2F505FB123303F0FF03A5
:104F1800092B94BF30333733DBB2214604F801390B
:104F28002B46002DEED1FFF7B5FF0BB030BD10B406
:104F38002AB903685DF8044B9B68C9B21847D2B216
:104F48005DF8044BFFF7D3BFFFF7F1BF38B505464F
:104F5800FFF7EDFF04462846FFF7B3FF204438BDAE
:104F68002DE9F04107460E4615462AB90368C9B22D
:104F78009B68BDE8F04118470A2A02D1002901DAE6
:104F880004E0D2B2BDE8F041FFF7B1BF2D21FFF731
:104F980095FF2A46044671423846FFF7A8FF204489
:104FA800BDE8F08138B50546FFF7DAFF0446284624
:104FB800FFF787FF204438BD10B50446FFF733FDDF
:104FC800204610BD0348044A04490023836000F0CA
:104FD80071BA00BFBCE50320B8E30320C14F0D0040
:104FE800704710B50446FFF752F8204610BD000080
:104FF80070B5084B0360044600250E4640F80C5F68
:10500800FFF742FB30462671FFF7F6FBA560204606
:1050180070BD00BF6C630D000079FFF7F5BB0000A1
:10502800054B4FF69C7200205A804FF6FF7218709D
:105038009A80FFF769BC00BFCCE50320024B1A68D1
:10504800024B1A60704700BFB0E30320D4E5032089
:10505800704741747047007CFFF716BC007CFFF76F
:10506800EBBB007CFFF7F8BB007CFFF7EDBB007CD7
:10507800FFF7FABB10B50446FFF709F8204610BD44
:1050880070B5457C04460E4625B9007CFFF7FCFB4D
:10509800002805DD3146207CBDE87040FFF7C4BB21
:1050A800284670BD10B504460846114600226260C5
:1050B8004FF47A72A260054A226001222074627459
:1050C8001A46FFF7A9FB204610BD00BFA8630D00D4
:1050D800007CFFF7D1BB000038B50C4D296811F0F2
:1050E800010411D12846FEF7D6FF68B1084A094BDA
:1050F80009482146FFF7D6FF2846FEF7D1FF074AA1
:105108000749054800F0D6F9034838BD70E6032082
:1051180074E60320ECE50320D8E50320B8E3032078
:1051280059500D004174704770470021007CFFF70B
:10513800D3BB0121007CFFF7CFBB007CFFF7C4BBCA
:10514800007CFFF7B9BB38B50446007C0D46FFF775
:10515800BBFB002801DC607C20B12946207CFFF7DE
:10516800C3FB012038BD007CFFF7C6BB10B5044661
:10517800FEF78DFF204610BD10B50446002363607E
:105188004FF47A73A360054B23600123084621740A
:1051980063741146FFF780FB204610BDD8630D00ED
:1051A8000022007CFFF780BB10B5142204460021C2
:1051B80000F091FF204610BD30B50E4D87B001A814
:1051C800FFF7F2FF296811F0010410D12846FEF715
:1051D80062FF60B101AA21460748FFF7CDFF2846C4
:1051E800FEF75EFF054A0649034800F063F90248E6
:1051F80007B030BDF8E60320FCE60320B8E303203F
:1052080031510D00002211464068FFF7C9BB00224A
:1052180011464068FFF7E4BB002211464068FFF7DB
:10522800EFBB00224068FFF7E3BB002281F00101D9
:105238004068FFF7CDBB00231A4619464068FFF7C0
:10524800BFBB00231A4619464068FFF7B1BB0022CE
:1052580011464068FFF794BB002202214068FFF71F
:1052680097BB00231A464068FFF782BB024B042213
:105278005A60024A1A60704710E7032008640D005C
:1052880008B50C4B33B1FFF797FF03681B699847C4
:10529800002809DC084B63B1FFF71EFF03681B6990
:1052A8009847002803DC08BDAFF30080F2E7AFF3AE
:1052B800008008BD000000000000000008B5FFF7EE
:1052C800DFFFFFF7F9F9014B186008BD1CE7032061
:1052D80007B5002300931A466FF07701FFF72EFBFE
:1052E80003B05DF804FB000007B543880A2B08D01B
:1052F800502B09D1094B1B683BB103B05DF804EB97
:105308001847FFF7E5FF06E0002300931A466FF001
:105318007701FFF713FB03B05DF804FB18E70320E0
:1053280008B500210448FFF71BFB00210348BDE82E
:105338000840FFF7F9BA00BF00000000F1520D0065
:1053480010B504460F48FFF767FE28B1A4F10B0318
:10535800022B01D8002010BD00F06AF8FFF7E8FB27
:1053680008B1012CF6D9FFF7B7FEFFF7B1FE18B167
:10537800A4F10903012BEDD9232C8CBF00200120B7
:1053880010BD00BF38E70320232838B504460D4672
:105398000AD8FF2908D0FFF7D3FF28B129462046AD
:1053A800BDE83840FFF7A0B938BD38B504460D460A
:1053B800FFF7A2F9FF2810D0062804D84D2323FAB6
:1053C80000F0C30709D42046FFF7BAFF28B12946E1
:1053D8002046BDE83840FFF797B938BD10B50446F8
:1053E800FFF78AF90438C0B2012808D92046FFF728
:1053F800A7FF20B12046BDE81040FFF78DB9002077
:1054080010BD0D2810B504469CBF0E34A4B220462A
:10541800FFF796FF50B103212046FFF75DF90328F7
:1054280004D12046BDE81040FFF78EB9002010BD1A
:1054380038B50B4D296811F001040FD12846FEF745
:105448002AFE58B121460748FFF760FB2846FEF7B9
:1054580027FE054A0549034800F02CF8014838BDE5
:1054680020E7032024E70320B8E30320BD4A0D000A
:1054780070B50C4C0C4E0D4D00212046FFF7B8FDC1
:1054880020460B4C3246294600F014F801212046EC
:10549800FFF7AEFD324629462046BDE8704000F0D1
:1054A80009B800BF38E70320B8E30320E94F0D002F
:1054B80048E703200B460146184600F0F3BD0000FC
:1054C800244B1A68D0075CBF01221A60224B1A6865
:1054D800D1075CBF01221A60204B1A68D2075CBF53
:1054E80001221A601E4B1A68D0075CBF01221A609D
:1054F8001C4B1A68D1075CBF01221A601A4B1A6844
:10550800D2075CBF01221A60184B1A68D0075CBF2B
:1055180001221A60164B1A68D1075CBF01221A6073
:10552800144B1A68D2075CBF01221A60124B1A6822
:10553800D0075CBF01221A60104B1A68D1075CBF04
:1055480001221A600E4B1A68D2075CBF01221A604A
:10555800704700BF84E7032080E703207CE703202F
:1055680078E7032074E7032070E703206CE7032043
:1055780068E7032064E7032060E703205CE7032073
:1055880058E70320184B1A68D1075CBF01221A603C
:10559800164B1A68D2075CBF01221A60144B1A68AE
:1055A800D0075CBF01221A60124B1A68D1075CBF92
:1055B80001221A60104B1A68D2075CBF01221A60D8
:1055C8000E4B1A68D0075CBF01221A600C4B1A6890
:1055D800D1075CBF01221A600A4B1A68D2075CBF68
:1055E80001221A60704700BFA4E70320A0E7032048
:1055F8009CE7032098E7032094E7032090E7032023
:105608008CE7032088E70320184B1A68D1075CBF92
:1056180001221A60164B1A68D2075CBF01221A6071
:10562800144B1A68D0075CBF01221A60124B1A6823
:10563800D1075CBF01221A60104B1A68D2075CBF01
:1056480001221A600E4B1A68D0075CBF01221A604B
:105658000C4B1A68D1075CBF01221A600A4B1A6802
:10566800D2075CBF01221A60704700BFC4E703205D
:10567800C0E70320BCE70320B8E70320B4E7032012
:10568800B0E70320ACE70320A8E70320244B1A68FF
:10569800D0075CBF01221A60224B1A68D1075CBF91
:1056A80001221A60204B1A68D2075CBF01221A60D7
:1056B8001E4B1A68D0075CBF01221A601C4B1A687F
:1056C800D1075CBF01221A601A4B1A68D2075CBF67
:1056D80001221A60184B1A68D0075CBF01221A60B1
:1056E800164B1A68D1075CBF01221A60144B1A685E
:1056F800D2075CBF01221A60124B1A68D0075CBF40
:1057080001221A60104B1A68D1075CBF01221A6087
:105718000E4B1A68D2075CBF01221A60704700BF9F
:10572800F4E70320F0E70320ECE70320E8E7032091
:10573800E4E70320E0E70320DCE70320D8E70320C1
:10574800D4E70320D0E70320CCE70320C8E70320F1
:10575800F8B553EC102BC3F30A54A4F2FF30132806
:10576800194610EE107A12DC002832DB234E06416F
:1057780033421D462AD04FF400210141294421EA31
:10578800060100240B46224643EC102BF8BD3328B3
:1057980005DDB0F5806F22D043EC102BF8BDA4F2E4
:1057A80013444FF0FF3525FA04F42242F4D00123C4
:1057B800C0F1330003FA00F0C01928BFC91820EA65
:1057C80004040B46224643EC102BF8BD002AD2D124
:1057D800E2E7013003F0004109D00024D2E710EEDF
:1057E800100A194600F012F841EC100BF8BD41F010
:1057F8007F5141F440110024C4E700BFFFFF0F00B0
:1058080081F0004102E000BF83F0004330B54FEA69
:1058180041044FEA430594EA050F08BF90EA020FD6
:105828001FBF54EA000C55EA020C7FEA645C7FEA69
:10583800655C00F0E2804FEA5454D4EB5555B8BF8C
:105848006D420CDD2C4480EA020281EA030382EAFD
:10585800000083EA010180EA020281EA0303362D8F
:1058680088BF30BD11F0004F4FEA01314FF4801C62
:105878004CEA113102D0404261EB410113F0004F74
:105888004FEA03334CEA133302D0524263EB43032B
:1058980094EA050F00F0A780A4F10104D5F1200EC9
:1058A8000DDB02FA0EFC22FA05F2801841F1000124
:1058B80003FA0EF2801843FA05F359410EE0A5F1F8
:1058C80020050EF1200E012A03FA0EFC28BF4CF029
:1058D800020C43FA05F3C01851EBE37101F00045DF
:1058E80007D54FF0000EDCF1000C7EEB00006EEBEC
:1058F8000101B1F5801F1BD3B1F5001F0CD3490876
:105908005FEA30004FEA3C0C04F101044FEA4452CC
:1059180012F5800F80F09A80BCF1004F08BF5FEA53
:10592800500C50F1000041EB045141EA050130BD33
:105938005FEA4C0C404141EB010111F4801FA4F1D6
:105948000104E9D191F0000F04BF01460020B1FA2B
:1059580081F308BF2033A3F10B03B3F120020CDA63
:105968000C3208DD02F1140CC2F10C0201FA0CF041
:1059780021FA02F10CE002F11402D8BFC2F1200CA6
:1059880001FA02F120FA0CFCDCBF41EA0C0190405C
:10599800E41AA2BF01EB0451294330BD6FEA0404A5
:1059A8001F3C1CDA0C340EDC04F11404C4F1200290
:1059B80020FA04F001FA02F340EA030021FA04F3A2
:1059C80045EA030130BDC4F10C04C4F1200220FAF9
:1059D80002F001FA04F340EA0300294630BD21FA37
:1059E80004F0294630BD94F0000F83F4801306BFFD
:1059F80081F480110134013D4EE77FEA645C18BFF1
:105A08007FEA655C29D094EA050F08BF90EA020F87
:105A180005D054EA000C04BF1946104630BD91EA7F
:105A2800030F1EBF0021002030BD5FEA545C05D182
:105A38004000494128BF41F0004130BD14F58004C1
:105A48003CBF01F5801130BD01F0004545F0FE4135
:105A580041F470014FF0000030BD7FEA645C1ABF6A
:105A6800194610467FEA655C1CBF0B46024650EAA1
:105A7800013406BF52EA033591EA030F41F40021CD
:105A880030BD00BF90F0000F04BF0021704730B553
:105A98004FF4806404F132044FF000054FF0000128
:105AA80050E700BF90F0000F04BF0021704730B5E9
:105AB8004FF4806404F1320410F0004548BF4042BE
:105AC8004FF000013EE700BF42004FEAE2014FEA13
:105AD80031014FEA02701FBF12F07F4393F07F4FEE
:105AE80081F06051704792F0000F14BF93F07F4F20
:105AF800704730B54FF4607401F0004521F0004163
:105B080020E700BF50EA010208BF704730B54FF0E8
:105B180000050AE050EA010208BF704730B511F0ED
:105B2800004502D5404261EB41014FF4806404F125
:105B380032045FEA915C3FF4DCAE4FF003025FEAA7
:105B4800DC0C18BF03325FEADC0C18BF033202EB2F
:105B5800DC02C2F1200300FA03FC20FA02F001FA89
:105B680003FE40EA0E0021FA02F11444C1E600BF28
:105B780070B54FF0FF0C4CF4E06C1CEA11541DBFDB
:105B88001CEA135594EA0C0F95EA0C0F00F0DEF8A6
:105B98002C4481EA030621EA4C5123EA4C5350EA8B
:105BA800013518BF52EA033541F4801143F48013DC
:105BB80038D0A0FB02CE4FF00005E1FB02E506F06D
:105BC8000042E0FB03E54FF00006E1FB03569CF0C2
:105BD800000F18BF4EF0010EA4F1FF04B6F5007FC8
:105BE80064F5407404D25FEA4E0E6D4146EB06063A
:105BF80042EAC62141EA55514FEAC52040EA5E50C3
:105C08004FEACE2EB4F1FD0C88BFBCF5E06F1ED86C
:105C1800BEF1004F08BF5FEA500E50F1000041EBA3
:105C2800045170BD06F0004646EA010140EA020050
:105C380081EA0301B4EB5C04C2BFD4EB0C0541EA72
:105C4800045170BD41F480114FF0000E013C00F387
:105C5800AB8014F1360FDEBF002001F0004170BDAB
:105C6800C4F10004203C35DA0C341BDC04F11404C4
:105C7800C4F1200500FA05F320FA04F001FA05F250
:105C880040EA020001F0004221F0004110EBD3701D
:105C980021FA04F642EB06015EEA430E08BF20EA49
:105CA800D37070BDC4F10C04C4F1200500FA04F3EC
:105CB80020FA05F001FA04F240EA020001F000417E
:105CC80010EBD37041F100015EEA430E08BF20EAF1
:105CD800D37070BDC4F1200500FA05F24EEA020E39
:105CE80020FA04F301FA05F243EA020321FA04F068
:105CF80001F0004121FA04F220EA020000EBD3701F
:105D08005EEA430E08BF20EAD37070BD94F0000F1E
:105D18000FD101F00046400041EB010111F4801F52
:105D280008BF013CF7D041EA060195F0000F18BF03
:105D3800704703F00046520043EB030313F4801F3F
:105D480008BF013DF7D043EA0603704794EA0C0FF9
:105D58000CEA135518BF95EA0C0F0CD050EA41060F
:105D680018BF52EA4306D1D181EA030101F000418C
:105D78004FF0000070BD50EA410606BF10461946B4
:105D880052EA430619D094EA0C0F02D150EA0136C0
:105D980013D195EA0C0F05D152EA03361CBF104601
:105DA80019460AD181EA030101F0004141F0FE41A0
:105DB80041F470014FF0000070BD41F0FE4141F424
:105DC800780170BD70B54FF0FF0C4CF4E06C1CEA24
:105DD80011541DBF1CEA135594EA0C0F95EA0C0FD9
:105DE80000F0A7F8A4EB050481EA030E52EA033594
:105DF8004FEA013100F088804FEA03334FF08055B5
:105E080045EA131343EA12634FEA022245EA1115E1
:105E180045EA10654FEA00260EF000419D4208BF92
:105E2800964244F1FD0404F5407402D25B084FEA3F
:105E38003202B61A65EB03055B084FEA32024FF4EB
:105E480080104FF4002CB6EB020E75EB030E22BF48
:105E5800B61A754640EA0C005B084FEA3202B6EB08
:105E6800020E75EB030E22BFB61A754640EA5C00B7
:105E78005B084FEA3202B6EB020E75EB030E22BF47
:105E8800B61A754640EA9C005B084FEA3202B6EB48
:105E9800020E75EB030E22BFB61A754640EADC0007
:105EA80055EA060E18D04FEA051545EA16754FEA69
:105EB80006164FEAC30343EA52734FEAC2025FEA87
:105EC8001C1CC0D111F4801F0BD141EA00014FF016
:105ED80000004FF0004CB6E711F4801F04BF0143E7
:105EE8000020B4F1FD0C88BFBCF5E06F3FF6AFAE03
:105EF800B5EB030C04BFB6EB020C5FEA500C50F193
:105F0800000041EB045170BD0EF0004E4EEA113115
:105F180014EB5C04C2BFD4EB0C0541EA045170BD1C
:105F280041F480114FF0000E013C90E645EA060E60
:105F38008DE60CEA135594EA0C0F08BF95EA0C0F8E
:105F48003FF43BAF94EA0C0F0AD150EA01347FF4D6
:105F580034AF95EA0C0F7FF425AF104619462CE7AD
:105F680095EA0C0F06D152EA03353FF4FDAE104610
:105F7800194622E750EA410618BF52EA43067FF461
:105F8800C5AE50EA41047FF40DAF52EA43057FF4F1
:105F9800EBAE12E74FF0FF3C06E000BF4FF0010CFC
:105FA80002E000BF4FF0010C4DF804CD4FEA410C60
:105FB8007FEA6C5C4FEA430C18BF7FEA6C5C1BD02D
:105FC80001B050EA410C0CBF52EA430C91EA030FAE
:105FD80002BF90EA020F0020704710F1000F91EA0B
:105FE800030F58BF994208BF90422CBFD8176FEAD9
:105FF800E37040F0010070474FEA410C7FEA6C5CA7
:1060080002D150EA013C07D14FEA430C7FEA6C5CAD
:10601800D6D152EA033CD3D05DF8040B704700BFD9
:106028008446104662468C461946634600E000BF27
:1060380001B5FFF7B7FF002848BF10F1000F01BDF9
:106048004DF808EDFFF7F4FF0CBF012000205DF8C4
:1060580008FB00BF4DF808EDFFF7EAFF34BF012049
:1060680000205DF808FB00BF4DF808EDFFF7E0FFE2
:1060780094BF012000205DF808FB00BF4DF808ED33
:10608800FFF7CEFF94BF012000205DF808FB00BF9A
:106098004DF808EDFFF7C4FF34BF012000205DF87C
:1060A80008FB00BF10B5054C13462CB10A46014643
:1060B8000220AFF3008010BD204610BD0000000094
:1060C80010B5431E0A44914204D011F8014B03F85D
:1060D800014FF8E710BD02440346934202D003F88B
:1060E800011BFAE77047034613F8012B002AFBD17E
:1060F800181A0138704700001D400D0059400D0066
:1061080085400D0089400D00000000000A536574A9
:1061180075702E2E2E0074656D70657261747572BF
:106128006500726F746174696F6E006469616C54A4
:10613800656D700044485420426567696E00626569
:1061480067696E696E6720726561642829006261FB
:10615800696C696E67004375727274696D653A207F
:1061680000204C61737474696D653A200061626F38
:10617800757420746F2072656164002C2000203DC6
:106188003F200052656164696E672054656D700038
:1061980072656164696E672068756D696469747990
:1061A8000000000000000000000000009F4A0D00F1
:1061B800954A0D008B4A0D00814A0D00754A0D0065
:1061C800694A0D005D4A0D00554A0D004B4A0D0005
:1061D800414A0D00D94D0D000000000000000000EC
:1061E800BD4A0D00074B0D00DF4A0D00BF4A0D00E8
:1061F800E74A0D00EF4A0D00F74A0D00FF4A0D006F
:106208000000000000000000574B0D00494B0D0036
:106218004B4B0D0066006C6E00666E00636F646524
:106228000064657461696C000D0A002530313075B1
:1062380020005D200025640028293A2000205B000A
:10624800636F6465203D2000256900646574616999
:106258006C73203D2000626175640053657269614A
:106268006C0053657269616C3100747970650070F7
:106278006172616D00636D6400696400686E64003A
:106288007374726D0066696C74006C766C0061647E
:106298006448616E646C65720072656D6F766548FE
:1062A800616E646C657200656E756D48616E646CD4
:1062B800657273004A534F4E53747265616D4C6F2B
:1062C8006748616E646C657200617070006E6F6E15
:1062D8006500747261636500696E666F007761724C
:1062E8006E006572726F720070616E696300616C36
:1062F8006C00000000000000000000009B4C0D0036
:10630800914C0D00874C0D007D4C0D00714C0D001B
:10631800654C0D00594C0D00514C0D00474C0D00BB
:106328003D4C0D00D94D0D0000000000000000009C
:10633800714D0D007B4D0D00854D0D008F4D0D00ED
:10634800994D0D00A54D0D00B14D0D00BD4D0D0031
:10635800C54D0D00CF4D0D00D94D0D0000000000BA
:1063680000000000E94F0D00EB4F0D005A00252BEF
:106378003033643A253032750025592D256D2D2589
:10638800645425483A254D3A2553257A00617363AC
:1063980074696D6500000000000000000000000046
:1063A80059500D007D500D0089500D00714E0D00A3
:1063B80065500D0071500D006B500D0077500D00A9
:1063C8005B500D005F500D00000000000000000051
:1063D80031510D0075510D004F510D00714E0D00DA
:1063E80049510D0033510D003B510D006F510D0007
:1063F80043510D002D510D00000000000000000069
:106408006B520D0061520D0057520D000D520D00D8
:106418004B520D003F520D0033520D002B520D0010
:1064280021520D0017520D00D94D0D0019430D00D2
:106438005D460D00A94A0D002D4C0D00254D0D009F
:106448005D4E0D00CD4F0D0029500D0045500D003B
:1064580075520D0079540D00C9540D008D550D006D
:0864680011560D0095560D00C0
:10647000FFFFFFFF00000000000000000000F87FA9
:10648000000000000000F87F000000000000F87F1E
:106490000200000000000000000000000000F87F83
:0464A00095630D00F3
:1064A400FFFFFFFF00000102030405060708090AB5
:1064B4000B0C0D0E0F101112131415161718191AB0
:0864C4001B1C1D1E1F202800F7
:0464CC0078563412B8
:04000003D0004018D1
:00000001FF
